{"abi":[{"type":"constructor","inputs":[],"stateMutability":"nonpayable"},{"type":"function","name":"UPGRADE_INTERFACE_VERSION","inputs":[],"outputs":[{"name":"","type":"string","internalType":"string"}],"stateMutability":"view"},{"type":"function","name":"deviceToken","inputs":[],"outputs":[{"name":"","type":"address","internalType":"contract IHumanBoundToken"}],"stateMutability":"view"},{"type":"function","name":"getHighestVerificationLevel","inputs":[{"name":"user","type":"address","internalType":"address"}],"outputs":[{"name":"verificationLevel","type":"string","internalType":"string"}],"stateMutability":"view"},{"type":"function","name":"getVerificationStatus","inputs":[{"name":"user","type":"address","internalType":"address"}],"outputs":[{"name":"hasDevice","type":"bool","internalType":"bool"},{"name":"hasOrb","type":"bool","internalType":"bool"}],"stateMutability":"view"},{"type":"function","name":"initialize","inputs":[{"name":"initialOwner","type":"address","internalType":"address"},{"name":"_deviceToken","type":"address","internalType":"address"},{"name":"_orbToken","type":"address","internalType":"address"}],"outputs":[],"stateMutability":"nonpayable"},{"type":"function","name":"isHuman","inputs":[{"name":"user","type":"address","internalType":"address"},{"name":"minVerification","type":"string","internalType":"string"}],"outputs":[{"name":"","type":"bool","internalType":"bool"}],"stateMutability":"view"},{"type":"function","name":"orbToken","inputs":[],"outputs":[{"name":"","type":"address","internalType":"contract IHumanBoundToken"}],"stateMutability":"view"},{"type":"function","name":"owner","inputs":[],"outputs":[{"name":"","type":"address","internalType":"address"}],"stateMutability":"view"},{"type":"function","name":"proxiableUUID","inputs":[],"outputs":[{"name":"","type":"bytes32","internalType":"bytes32"}],"stateMutability":"view"},{"type":"function","name":"renounceOwnership","inputs":[],"outputs":[],"stateMutability":"nonpayable"},{"type":"function","name":"transferOwnership","inputs":[{"name":"newOwner","type":"address","internalType":"address"}],"outputs":[],"stateMutability":"nonpayable"},{"type":"function","name":"upgradeToAndCall","inputs":[{"name":"newImplementation","type":"address","internalType":"address"},{"name":"data","type":"bytes","internalType":"bytes"}],"outputs":[],"stateMutability":"payable"},{"type":"event","name":"Initialized","inputs":[{"name":"version","type":"uint64","indexed":false,"internalType":"uint64"}],"anonymous":false},{"type":"event","name":"OwnershipTransferred","inputs":[{"name":"previousOwner","type":"address","indexed":true,"internalType":"address"},{"name":"newOwner","type":"address","indexed":true,"internalType":"address"}],"anonymous":false},{"type":"event","name":"Upgraded","inputs":[{"name":"implementation","type":"address","indexed":true,"internalType":"address"}],"anonymous":false},{"type":"error","name":"AddressEmptyCode","inputs":[{"name":"target","type":"address","internalType":"address"}]},{"type":"error","name":"ERC1967InvalidImplementation","inputs":[{"name":"implementation","type":"address","internalType":"address"}]},{"type":"error","name":"ERC1967NonPayable","inputs":[]},{"type":"error","name":"FailedCall","inputs":[]},{"type":"error","name":"InvalidInitialization","inputs":[]},{"type":"error","name":"NotInitializing","inputs":[]},{"type":"error","name":"OwnableInvalidOwner","inputs":[{"name":"owner","type":"address","internalType":"address"}]},{"type":"error","name":"OwnableUnauthorizedAccount","inputs":[{"name":"account","type":"address","internalType":"address"}]},{"type":"error","name":"UUPSUnauthorizedCallContext","inputs":[]},{"type":"error","name":"UUPSUnsupportedProxiableUUID","inputs":[{"name":"slot","type":"bytes32","internalType":"bytes32"}]}],"bytecode":{"object":"0x60a080604052346100cc57306080527ff0c57e16840df040f15088dc2f81fe391c3923bec73e23a9662efc9c229c6a009081549060ff8260401c166100bd57506001600160401b036002600160401b031982821601610078575b604051610dfa90816100d182396080518181816105d9015261068c0152f35b6001600160401b031990911681179091556040519081527fc7f505b2f371ae2175ee4913f4499e1f2633a7b5936321eed1cdaeb6115181d290602090a15f8080610059565b63f92ee8a960e01b8152600490fd5b5f80fdfe60406080815260049081361015610014575f80fd5b5f3560e01c9182634f1ef2861461063d57826352d1902d146105c65782636103681a1461049e5782636e4b255b14610476578263715018a61461040f5782638da5cb5b146103db578263ad3cb1cc1461039f578263b5f3362214610378578263c0c53b8b1461016f578263df01454e1461010657508163e46a7da7146100d2575063f2fde38b146100a3575f80fd5b346100ce5760203660031901126100ce576100cc6100bf61088e565b6100c7610cc8565b610c57565b005b5f80fd5b346100ce5760203660031901126100ce57610102906100f76100f261088e565b610b40565b905191829182610948565b0390f35b90346100ce57806003193601126100ce5761011f61088e565b916024359067ffffffffffffffff908183116100ce57366023840112156100ce578201359081116100ce5736602482840101116100ce5760209360246101669301906109e8565b90519015158152f35b346100ce5760603660031901126100ce5761018861088e565b6001600160a01b03602435818116908190036100ce576044359182168092036100ce577ff0c57e16840df040f15088dc2f81fe391c3923bec73e23a9662efc9c229c6a009384549360ff85881c16159467ffffffffffffffff811680159081610370575b6001149081610366575b15908161035d575b5061034d5767ffffffffffffffff198116600117875561023091908661032e575b50610228610d00565b6100c7610d00565b610238610d00565b81156102eb5782156102a857506bffffffffffffffffffffffff60a01b90815f5416175f55600154161760015561026b57005b805468ff00000000000000001916905551600181527fc7f505b2f371ae2175ee4913f4499e1f2633a7b5936321eed1cdaeb6115181d290602090a1005b606490602087519162461bcd60e51b8352820152601960248201527f496e76616c6964206f726220746f6b656e2061646472657373000000000000006044820152fd5b606490602087519162461bcd60e51b8352820152601c60248201527f496e76616c69642064657669636520746f6b656e2061646472657373000000006044820152fd5b68ffffffffffffffffff1916680100000000000000011787558861021f565b875163f92ee8a960e01b81528390fd5b905015896101fe565b303b1591506101f6565b8791506101ec565b50346100ce575f3660031901126100ce575f5490516001600160a01b039091168152602090f35b50346100ce575f3660031901126100ce578051610102916103bf826108a4565b60058252640352e302e360dc1b60208301525191829182610948565b50346100ce575f3660031901126100ce575f80516020610da58339815191525490516001600160a01b039091168152602090f35b346100ce575f3660031901126100ce57610427610cc8565b5f80516020610da583398151915280546001600160a01b031981169091555f906001600160a01b03167f8be0079c531659141344cd1fd0a4f28419497f9722a3daafe3b4186f6b6457e08280a3005b50346100ce575f3660031901126100ce5760015490516001600160a01b039091168152602090f35b346100ce576020806003193601126100ce576104b861088e565b5f546001600160a01b0390811680151594919085610567575b50808491600154169384151594856104f8575b505050505083519215158352151590820152f35b602492939495508851958694859363f72c436f60e01b855216908301525afa90811561055d575f91610530575b5084828180806104e4565b6105509150823d8411610556575b61054881836108d4565b81019061098f565b84610525565b503d61053e565b84513d5f823e3d90fd5b865163f72c436f60e01b8152848316848201529195508490829060249082905afa80156105bc5784915f9161059f575b5094906104d1565b6105b69150823d84116105565761054881836108d4565b87610597565b86513d5f823e3d90fd5b90346100ce575f3660031901126100ce577f00000000000000000000000000000000000000000000000000000000000000006001600160a01b0316300361063057602090517f360894a13ba1a3210667c828492db98dca3e2076cc3735a920a3ca505d382bbc8152f35b5163703e46dd60e11b8152fd5b816003193601126100ce5761065061088e565b9160243567ffffffffffffffff81116100ce57366023820112156100ce576106819036906024818601359101610912565b906001600160a01b037f00000000000000000000000000000000000000000000000000000000000000008116308114908115610860575b50610850576106c5610cc8565b8416918151946352d1902d60e01b865260209081878781885afa5f9781610821575b50610703578351634c9c8ce360e01b8152808701869052602490fd5b919490937f360894a13ba1a3210667c828492db98dca3e2076cc3735a920a3ca505d382bbc877fc9f76b5ec45e5cdef99837d7b6d2467235c1df8933c8ca56df5c35afa2c7d444810161080b5750833b156107f45780546001600160a01b031916821790558351907fbc7cd75a20ee27fd9adebab32041f755214dbc6bffa90cc0225b39da2e5c2d3b5f80a28551156107db5750505f8085856100cc97519101845af4913d156107d1573d6107c36107ba826108f6565b925192836108d4565b81525f81943d92013e610d41565b5060609250610d41565b935093505050346107e857005b63b398979f60e01b8152fd5b8451634c9c8ce360e01b8152808401839052602490fd5b83602491875191632a87526960e21b8352820152fd5b9097508281813d8311610849575b61083981836108d4565b810103126100ce575196886106e7565b503d61082f565b815163703e46dd60e11b81528490fd5b9050817f360894a13ba1a3210667c828492db98dca3e2076cc3735a920a3ca505d382bbc54161415866106b8565b600435906001600160a01b03821682036100ce57565b6040810190811067ffffffffffffffff8211176108c057604052565b634e487b7160e01b5f52604160045260245ffd5b90601f8019910116810190811067ffffffffffffffff8211176108c057604052565b67ffffffffffffffff81116108c057601f01601f191660200190565b92919261091e826108f6565b9161092c60405193846108d4565b8294818452818301116100ce578281602093845f960137010152565b602080825282518183018190529093925f5b82811061097b57505060409293505f838284010152601f8019910116010190565b81810186015184820160400152850161095a565b908160209103126100ce575180151581036100ce5790565b604051906109b4826108a4565b600382526237b93160e91b6020830152565b604051906109d3826108a4565b600682526564657669636560d01b6020830152565b60015490926001600160a01b0391821680151593929084610ae7575b50805f5416908115159586610a82575b505050610a22368284610912565b60208151910120610a316109a7565b60208151910120145f14610a46575050905090565b90610a52913691610912565b60208151910120610a616109c6565b6020815191012014610a735750505f90565b8115610a7d575090565b905090565b60405163f72c436f60e01b815291166004820152919450602090829060249082905afa908115610adc575f91610abd575b50925f8080610a14565b610ad6915060203d6020116105565761054881836108d4565b5f610ab3565b6040513d5f823e3d90fd5b60405163f72c436f60e01b81528683166004820152919450602090829060249082905afa908115610adc575f91610b21575b50925f610a04565b610b3a915060203d6020116105565761054881836108d4565b5f610b19565b6001546001600160a01b039081168015159081610c00575b50610bf657805f5416908115159283610b9e575b505050610b9357604051610b7f816108a4565b60048152636e6f6e6560e01b602082015290565b610b9b6109c6565b90565b60405163f72c436f60e01b8152911660048201529150602090829060249082905afa908115610adc575f91610bd7575b505f8080610b6c565b610bf0915060203d6020116105565761054881836108d4565b5f610bce565b5050610b9b6109a7565b60405163f72c436f60e01b815284841660048201529150602090829060249082905afa908115610adc575f91610c38575b505f610b58565b610c51915060203d6020116105565761054881836108d4565b5f610c31565b6001600160a01b03908116908115610cb0575f80516020610da583398151915280546001600160a01b031981168417909155167f8be0079c531659141344cd1fd0a4f28419497f9722a3daafe3b4186f6b6457e05f80a3565b604051631e4fbdf760e01b81525f6004820152602490fd5b5f80516020610da5833981519152546001600160a01b03163303610ce857565b60405163118cdaa760e01b8152336004820152602490fd5b60ff7ff0c57e16840df040f15088dc2f81fe391c3923bec73e23a9662efc9c229c6a005460401c1615610d2f57565b604051631afcd79f60e31b8152600490fd5b90610d685750805115610d5657602081519101fd5b60405163d6bda27560e01b8152600490fd5b81511580610d9b575b610d79575090565b604051639996b31560e01b81526001600160a01b039091166004820152602490fd5b50803b15610d7156fe9016d09d72d40fdae2fd8ceac6b6234c7706214fd39c1cd1e609a0528c199300a2646970667358221220fbdf6d877eb5143601215afa4620fa9345572ae3e9a36add52f71a814b0dadb164736f6c63430008160033","linkReferences":{}},"methodIdentifiers":{"UPGRADE_INTERFACE_VERSION()":"ad3cb1cc","deviceToken()":"b5f33622","getHighestVerificationLevel(address)":"e46a7da7","getVerificationStatus(address)":"6103681a","initialize(address,address,address)":"c0c53b8b","isHuman(address,string)":"df01454e","orbToken()":"6e4b255b","owner()":"8da5cb5b","proxiableUUID()":"52d1902d","renounceOwnership()":"715018a6","transferOwnership(address)":"f2fde38b","upgradeToAndCall(address,bytes)":"4f1ef286"},"id":36}