{
  "abi": [
    {
      "type": "constructor",
      "inputs": [],
      "stateMutability": "nonpayable"
    },
    {
      "type": "function",
      "name": "UPGRADE_INTERFACE_VERSION",
      "inputs": [],
      "outputs": [
        {
          "name": "",
          "type": "string",
          "internalType": "string"
        }
      ],
      "stateMutability": "view"
    },
    {
      "type": "function",
      "name": "claimCampaignReward",
      "inputs": [
        {
          "name": "tokenToReceive",
          "type": "address",
          "internalType": "address"
        },
        {
          "name": "tokenToSendToVault",
          "type": "address",
          "internalType": "address"
        },
        {
          "name": "amountToReceive",
          "type": "uint256",
          "internalType": "uint256"
        },
        {
          "name": "amountToSendToVault",
          "type": "uint256",
          "internalType": "uint256"
        },
        {
          "name": "linkId",
          "type": "bytes32",
          "internalType": "bytes32"
        },
        {
          "name": "deadline",
          "type": "uint256",
          "internalType": "uint256"
        },
        {
          "name": "campaignId",
          "type": "bytes32",
          "internalType": "bytes32"
        },
        {
          "name": "serverSignature",
          "type": "bytes",
          "internalType": "bytes"
        }
      ],
      "outputs": [],
      "stateMutability": "nonpayable"
    },
    {
      "type": "function",
      "name": "claimCampaignRewardEth",
      "inputs": [
        {
          "name": "amountToReceive",
          "type": "uint256",
          "internalType": "uint256"
        },
        {
          "name": "amountToSendToVault",
          "type": "uint256",
          "internalType": "uint256"
        },
        {
          "name": "linkId",
          "type": "bytes32",
          "internalType": "bytes32"
        },
        {
          "name": "deadline",
          "type": "uint256",
          "internalType": "uint256"
        },
        {
          "name": "campaignId",
          "type": "bytes32",
          "internalType": "bytes32"
        },
        {
          "name": "serverSignature",
          "type": "bytes",
          "internalType": "bytes"
        }
      ],
      "outputs": [],
      "stateMutability": "nonpayable"
    },
    {
      "type": "function",
      "name": "eip712Domain",
      "inputs": [],
      "outputs": [
        {
          "name": "fields",
          "type": "bytes1",
          "internalType": "bytes1"
        },
        {
          "name": "name",
          "type": "string",
          "internalType": "string"
        },
        {
          "name": "version",
          "type": "string",
          "internalType": "string"
        },
        {
          "name": "chainId",
          "type": "uint256",
          "internalType": "uint256"
        },
        {
          "name": "verifyingContract",
          "type": "address",
          "internalType": "address"
        },
        {
          "name": "salt",
          "type": "bytes32",
          "internalType": "bytes32"
        },
        {
          "name": "extensions",
          "type": "uint256[]",
          "internalType": "uint256[]"
        }
      ],
      "stateMutability": "view"
    },
    {
      "type": "function",
      "name": "emergencyWithdraw",
      "inputs": [
        {
          "name": "token",
          "type": "address",
          "internalType": "address"
        },
        {
          "name": "amount",
          "type": "uint256",
          "internalType": "uint256"
        },
        {
          "name": "recipient",
          "type": "address",
          "internalType": "address"
        }
      ],
      "outputs": [],
      "stateMutability": "nonpayable"
    },
    {
      "type": "function",
      "name": "initialize",
      "inputs": [
        {
          "name": "initialOwner",
          "type": "address",
          "internalType": "address"
        },
        {
          "name": "_serverSigner",
          "type": "address",
          "internalType": "address"
        }
      ],
      "outputs": [],
      "stateMutability": "nonpayable"
    },
    {
      "type": "function",
      "name": "isCampaignIdUsed",
      "inputs": [
        {
          "name": "campaignId",
          "type": "bytes32",
          "internalType": "bytes32"
        }
      ],
      "outputs": [
        {
          "name": "",
          "type": "bool",
          "internalType": "bool"
        }
      ],
      "stateMutability": "view"
    },
    {
      "type": "function",
      "name": "linkVault",
      "inputs": [],
      "outputs": [
        {
          "name": "",
          "type": "address",
          "internalType": "address"
        }
      ],
      "stateMutability": "view"
    },
    {
      "type": "function",
      "name": "owner",
      "inputs": [],
      "outputs": [
        {
          "name": "",
          "type": "address",
          "internalType": "address"
        }
      ],
      "stateMutability": "view"
    },
    {
      "type": "function",
      "name": "proxiableUUID",
      "inputs": [],
      "outputs": [
        {
          "name": "",
          "type": "bytes32",
          "internalType": "bytes32"
        }
      ],
      "stateMutability": "view"
    },
    {
      "type": "function",
      "name": "renounceOwnership",
      "inputs": [],
      "outputs": [],
      "stateMutability": "nonpayable"
    },
    {
      "type": "function",
      "name": "serverSigner",
      "inputs": [],
      "outputs": [
        {
          "name": "",
          "type": "address",
          "internalType": "address"
        }
      ],
      "stateMutability": "view"
    },
    {
      "type": "function",
      "name": "setLinkVault",
      "inputs": [
        {
          "name": "newLinkVault",
          "type": "address",
          "internalType": "address"
        }
      ],
      "outputs": [],
      "stateMutability": "nonpayable"
    },
    {
      "type": "function",
      "name": "setServerSigner",
      "inputs": [
        {
          "name": "newServerSigner",
          "type": "address",
          "internalType": "address"
        }
      ],
      "outputs": [],
      "stateMutability": "nonpayable"
    },
    {
      "type": "function",
      "name": "transferOwnership",
      "inputs": [
        {
          "name": "newOwner",
          "type": "address",
          "internalType": "address"
        }
      ],
      "outputs": [],
      "stateMutability": "nonpayable"
    },
    {
      "type": "function",
      "name": "upgradeToAndCall",
      "inputs": [
        {
          "name": "newImplementation",
          "type": "address",
          "internalType": "address"
        },
        {
          "name": "data",
          "type": "bytes",
          "internalType": "bytes"
        }
      ],
      "outputs": [],
      "stateMutability": "payable"
    },
    {
      "type": "function",
      "name": "usedCampaignIds",
      "inputs": [
        {
          "name": "",
          "type": "bytes32",
          "internalType": "bytes32"
        }
      ],
      "outputs": [
        {
          "name": "",
          "type": "bool",
          "internalType": "bool"
        }
      ],
      "stateMutability": "view"
    },
    {
      "type": "event",
      "name": "CampaignClaim",
      "inputs": [
        {
          "name": "campaignId",
          "type": "bytes32",
          "indexed": true,
          "internalType": "bytes32"
        },
        {
          "name": "token",
          "type": "address",
          "indexed": true,
          "internalType": "address"
        },
        {
          "name": "recipient",
          "type": "address",
          "indexed": true,
          "internalType": "address"
        },
        {
          "name": "amountToReceive",
          "type": "uint256",
          "indexed": false,
          "internalType": "uint256"
        },
        {
          "name": "amountToSendToVault",
          "type": "uint256",
          "indexed": false,
          "internalType": "uint256"
        },
        {
          "name": "linkId",
          "type": "bytes32",
          "indexed": false,
          "internalType": "bytes32"
        }
      ],
      "anonymous": false
    },
    {
      "type": "event",
      "name": "EIP712DomainChanged",
      "inputs": [],
      "anonymous": false
    },
    {
      "type": "event",
      "name": "EmergencyWithdraw",
      "inputs": [
        {
          "name": "token",
          "type": "address",
          "indexed": true,
          "internalType": "address"
        },
        {
          "name": "recipient",
          "type": "address",
          "indexed": true,
          "internalType": "address"
        },
        {
          "name": "amount",
          "type": "uint256",
          "indexed": false,
          "internalType": "uint256"
        }
      ],
      "anonymous": false
    },
    {
      "type": "event",
      "name": "Initialized",
      "inputs": [
        {
          "name": "version",
          "type": "uint64",
          "indexed": false,
          "internalType": "uint64"
        }
      ],
      "anonymous": false
    },
    {
      "type": "event",
      "name": "LinkVaultUpdated",
      "inputs": [
        {
          "name": "prev",
          "type": "address",
          "indexed": true,
          "internalType": "address"
        },
        {
          "name": "next",
          "type": "address",
          "indexed": true,
          "internalType": "address"
        }
      ],
      "anonymous": false
    },
    {
      "type": "event",
      "name": "OwnershipTransferred",
      "inputs": [
        {
          "name": "previousOwner",
          "type": "address",
          "indexed": true,
          "internalType": "address"
        },
        {
          "name": "newOwner",
          "type": "address",
          "indexed": true,
          "internalType": "address"
        }
      ],
      "anonymous": false
    },
    {
      "type": "event",
      "name": "ServerSignerUpdated",
      "inputs": [
        {
          "name": "prev",
          "type": "address",
          "indexed": true,
          "internalType": "address"
        },
        {
          "name": "next",
          "type": "address",
          "indexed": true,
          "internalType": "address"
        }
      ],
      "anonymous": false
    },
    {
      "type": "event",
      "name": "Upgraded",
      "inputs": [
        {
          "name": "implementation",
          "type": "address",
          "indexed": true,
          "internalType": "address"
        }
      ],
      "anonymous": false
    },
    {
      "type": "error",
      "name": "AddressEmptyCode",
      "inputs": [
        {
          "name": "target",
          "type": "address",
          "internalType": "address"
        }
      ]
    },
    {
      "type": "error",
      "name": "ECDSAInvalidSignature",
      "inputs": []
    },
    {
      "type": "error",
      "name": "ECDSAInvalidSignatureLength",
      "inputs": [
        {
          "name": "length",
          "type": "uint256",
          "internalType": "uint256"
        }
      ]
    },
    {
      "type": "error",
      "name": "ECDSAInvalidSignatureS",
      "inputs": [
        {
          "name": "s",
          "type": "bytes32",
          "internalType": "bytes32"
        }
      ]
    },
    {
      "type": "error",
      "name": "ERC1967InvalidImplementation",
      "inputs": [
        {
          "name": "implementation",
          "type": "address",
          "internalType": "address"
        }
      ]
    },
    {
      "type": "error",
      "name": "ERC1967NonPayable",
      "inputs": []
    },
    {
      "type": "error",
      "name": "FailedCall",
      "inputs": []
    },
    {
      "type": "error",
      "name": "InvalidInitialization",
      "inputs": []
    },
    {
      "type": "error",
      "name": "NotInitializing",
      "inputs": []
    },
    {
      "type": "error",
      "name": "OwnableInvalidOwner",
      "inputs": [
        {
          "name": "owner",
          "type": "address",
          "internalType": "address"
        }
      ]
    },
    {
      "type": "error",
      "name": "OwnableUnauthorizedAccount",
      "inputs": [
        {
          "name": "account",
          "type": "address",
          "internalType": "address"
        }
      ]
    },
    {
      "type": "error",
      "name": "ReentrancyGuardReentrantCall",
      "inputs": []
    },
    {
      "type": "error",
      "name": "SafeERC20FailedOperation",
      "inputs": [
        {
          "name": "token",
          "type": "address",
          "internalType": "address"
        }
      ]
    },
    {
      "type": "error",
      "name": "UUPSUnauthorizedCallContext",
      "inputs": []
    },
    {
      "type": "error",
      "name": "UUPSUnsupportedProxiableUUID",
      "inputs": [
        {
          "name": "slot",
          "type": "bytes32",
          "internalType": "bytes32"
        }
      ]
    }
  ],
  "bytecode": {
    "object": "0x60a080604052346100cc57306080527ff0c57e16840df040f15088dc2f81fe391c3923bec73e23a9662efc9c229c6a009081549060ff8260401c166100bd57506001600160401b036002600160401b031982821601610078575b6040516122c190816100d1823960805181818161114001526111f90152f35b6001600160401b031990911681179091556040519081527fc7f505b2f371ae2175ee4913f4499e1f2633a7b5936321eed1cdaeb6115181d290602090a15f8080610059565b63f92ee8a960e01b8152600490fd5b5f80fdfe6080806040526004361015610012575f80fd5b5f905f3560e01c90816331af19081461188c57508063485cc955146113b05780634f1ef286146111aa57806352d1902d1461112e578063551512de14610ea25780636814816014610def578063715018a614610d88578063766ca62814610d6057806384b0196e14610c085780638da5cb5b14610bd457806398e8628114610b6357806399ec008e14610b34578063ad3cb1cc14610aeb578063be4e5b811461044a578063cf8bbc5914610137578063f2fde38b1461010a5763fdf8ad59146100d9575f80fd5b346101075760203660031901126101075760ff60406020926004358152600284522054166040519015158152f35b80fd5b5034610107576020366003190112610107576101346101276118ae565b61012f611c78565b611bd8565b80f35b50346101075760c03660031901126101075760249060043560843583356044356064356001600160401b0360a4358181116104465761017a9036906004016119d3565b91610183611c49565b61018f84421115611a73565b86895260026020526101a860ff60408b20541615611ab3565b6001546001600160a01b0394906101c29086161515611aff565b8815938415809561043d575b6101d790611b40565b60405160208101927f7c15be9c4bcccf7e342f633d31467dfe1704fcd692262e7af924a237ef6f3b9b84528b60408301528960608301528860808301523360a083015260c08201528960e082015260e081526101008101938185109085111761042a5761027c94610258610266946102609361026f97604052519020611ed0565b92369161195f565b90611ffa565b90929192612034565b83808a5416911614611b8c565b848752600260205260408720805460ff191660011790558584018087116104175747106103c957610370575b9585968396959661030a575b50506040805195865260208601929092529084015233927f2eaa52e870150d7b857212fbf474b73ae991c6be417ecc6d90ee3259be623d1a9080606081015b0390a460015f8051602061226c8339815191525580f35b6001541690813b1561036c5783916044879260405194859384926310d7610360e01b845288600485015230908401525af1908115610361578591156102b457610352906118da565b61035d57835f6102b4565b8380fd5b6040513d87823e3d90fd5b8580fd5b8580808088335af1610380611a44565b506102a85760405162461bcd60e51b815260206004820152601b818901527f455448207472616e7366657220746f2075736572206661696c656400000000006044820152606490fd5b60405162461bcd60e51b8152602060048201526021818a01527f496e73756666696369656e7420636f6e7472616374204554482062616c616e636044820152606560f81b6064820152608490fd5b634e487b7160e01b885260116004528888fd5b8c634e487b7160e01b5f5260416004525ffd5b508715156101ce565b8780fd5b503461083e5761010036600319011261083e576104656118ae565b61046d6118c4565b60e4356001600160401b03811161083e5761048c9036906004016119d3565b610494611c49565b6104a260a435421115611a73565b60c4355f5260026020526104bd60ff60405f20541615611ab3565b6001546104d4906001600160a01b03161515611aff565b6044351515918260443515610ae0575b6104ed90611b40565b604051917fb53f05f9b9a281ce3de3b6e92296583ba66338e044245e066fda6e43c401a72a602084015260018060a01b038616604084015260018060a01b0385166060840152604435608084015260643560a084015260843560c08401523360e084015260a43561010084015261012060c4358185015283526101408301908382106001600160401b03831117610acc5761026061059f936102586105b4966102669560405260208151910120611ed0565b5f546001600160a01b03918216911614611b8c565b60c4355f52600260205260405f20600160ff19825416179055610991575b606435610632575b5060408051604435815260643560208201526084359181019190915233916001600160a01b03169060c435907f2eaa52e870150d7b857212fbf474b73ae991c6be417ecc6d90ee3259be623d1a9080606081016102f3565b6001600160a01b03811615610941576040516370a0823160e01b81523060048201526020816024816001600160a01b0386165afa908115610833575f9161090f575b50606435116108ad5760015460405163095ea7b360e01b60208201526001600160a01b03909116602482018190526064803560448085019190915283529091906106be9082611923565b80516020905f90838301826001600160a01b0388165af15f513d82610888575b505015610842575b50506001546001600160a01b0316803b1561083e576040516206a16760e51b81526084803560048301526001600160a01b0384166024830152306044830152606480359083015290915f918391829084905af1801561083357610820575b5060018060a01b0360015416906040519060205f81840163095ea7b360e01b81528560248601528160448601526044855261077e85611908565b845190826001600160a01b0386165af15f513d826107fb575b5050156107a6575b50506105da565b6107e56107f3936040519063095ea7b360e01b602083015260248201525f6044820152604481526107d681611908565b6001600160a01b038316611fa0565b6001600160a01b0316611fa0565b5f808061079f565b90915061081857506001600160a01b0381163b15155b5f80610797565b600114610811565b61082b9193506118da565b5f915f610744565b6040513d5f823e3d90fd5b5f80fd5b6107d6610881926040519063095ea7b360e01b602083015260248201525f60448201526044815261087281611908565b6001600160a01b038516611fa0565b5f806106e6565b9091506108a557506001600160a01b0383163b15155b5f806106de565b60011461089e565b60405162461bcd60e51b815260206004820152603460248201527f496e73756666696369656e7420636f6e74726163742062616c616e636520666f6044820152731c881d1bdad95b951bd4d95b99151bd5985d5b1d60621b6064820152608490fd5b90506020813d602011610939575b8161092a60209383611923565b8101031261083e57515f610674565b3d915061091d565b60405162461bcd60e51b815260206004820152602260248201527f496e76616c696420746f6b656e546f53656e64546f5661756c74206164647265604482015261737360f01b6064820152608490fd5b6001600160a01b03821615610a87576040516370a0823160e01b81523060048201526020816024816001600160a01b0387165afa908115610833575f91610a55575b50604435116109f7576109f2604435336001600160a01b038516611cb0565b6105d2565b60405162461bcd60e51b815260206004820152603060248201527f496e73756666696369656e7420636f6e74726163742062616c616e636520666f60448201526f7220746f6b656e546f5265636569766560801b6064820152608490fd5b90506020813d602011610a7f575b81610a7060209383611923565b8101031261083e57515f6109d3565b3d9150610a63565b60405162461bcd60e51b815260206004820152601e60248201527f496e76616c696420746f6b656e546f52656365697665206164647265737300006044820152606490fd5b634e487b7160e01b5f52604160045260245ffd5b5060643515156104e4565b3461083e575f36600319011261083e57610b30604051610b0a816118ed565b60058152640352e302e360dc1b6020820152604051918291602083526020830190611995565b0390f35b3461083e57602036600319011261083e576004355f526002602052602060ff60405f2054166040519015158152f35b3461083e57602036600319011261083e57610b7c6118ae565b610b84611c78565b6001600160a01b0390811690610b9b821515611a00565b815f549182167f8aca81b772b289537bcc2c109e400ab186c91216ba0e41570dd28dfff23dddad5f80a36001600160a01b031916175f55005b3461083e575f36600319011261083e575f8051602061224c833981519152546040516001600160a01b039091168152602090f35b3461083e575f36600319011261083e577fa16a46d94261c7517cc8ff89f61c0ce93598e3c849801011dee649a6a557d100541580610d37575b15610cfa57610c4e611d2b565b610c56611e11565b6040516020808201928284106001600160401b03851117610acc57916020610caf8594610ca197966040525f8452604051978897600f60f81b895260e0858a015260e0890190611995565b908782036040890152611995565b914660608701523060808701525f60a087015285830360c087015251918281520192915f5b828110610ce357505050500390f35b835185528695509381019392810192600101610cd4565b60405162461bcd60e51b81526020600482015260156024820152741152540dcc4c8e88155b9a5b9a5d1a585b1a5e9959605a1b6044820152606490fd5b507fa16a46d94261c7517cc8ff89f61c0ce93598e3c849801011dee649a6a557d1015415610c41565b3461083e575f36600319011261083e576001546040516001600160a01b039091168152602090f35b3461083e575f36600319011261083e57610da0611c78565b5f8051602061224c83398151915280546001600160a01b031981169091555f906001600160a01b03167f8be0079c531659141344cd1fd0a4f28419497f9722a3daafe3b4186f6b6457e08280a3005b3461083e57602036600319011261083e57610e086118ae565b610e10611c78565b6001600160a01b03908116908115610e5d57816001549182167f2b1d671289f5f2c253fd82d0131c22b7a9dca330f6f1693b96d14d17bca40e525f80a36001600160a01b03191617600155005b60405162461bcd60e51b815260206004820152601a60248201527f496e76616c6964206c696e6b207661756c7420616464726573730000000000006044820152606490fd5b3461083e57606036600319011261083e57610ebb6118ae565b6024803560449182359260018060a01b038085169586860361083e57610edf611c49565b610ee7611c78565b86156110f75784156110b457169384610fd457834710610f91575f80808681945af1610f11611a44565b5015610f5857505060207ff24ef89f38eadc1bde50701ad6e4d6d11a2dc24f7cf834a486991f3883328504915b604051908152a360015f8051602061226c83398151915255005b9072115512081d1c985b9cd9995c8819985a5b1959606a1b60649260136040519362461bcd60e51b855260206004860152840152820152fd5b60405162461bcd60e51b8152602060048201526018818501527f496e73756666696369656e74204554482062616c616e6365000000000000000081840152606490fd5b91906040516370a0823160e01b81523060048201526020818481895afa80156108335785915f9161107f575b501061103c575050816110377ff24ef89f38eadc1bde50701ad6e4d6d11a2dc24f7cf834a486991f38833285049360209386611cb0565b610f3e565b907f496e73756666696369656e7420746f6b656e2062616c616e6365000000000000606492601a6040519362461bcd60e51b855260206004860152840152820152fd5b9150506020813d6020116110ac575b8161109b60209383611923565b8101031261083e5784905188611000565b3d915061108e565b60405162461bcd60e51b815260206004820152601d818601527f416d6f756e74206d7573742062652067726561746572207468616e203000000081850152606490fd5b60405162461bcd60e51b81526020600482015260118186015270125b9d985b1a59081c9958da5c1a595b9d607a1b81850152606490fd5b3461083e575f36600319011261083e577f00000000000000000000000000000000000000000000000000000000000000006001600160a01b031630036111985760206040517f360894a13ba1a3210667c828492db98dca3e2076cc3735a920a3ca505d382bbc8152f35b60405163703e46dd60e11b8152600490fd5b604036600319011261083e576111be6118ae565b6024356001600160401b03811161083e573660238201121561083e576111ee90369060248160040135910161195f565b906001600160a01b037f00000000000000000000000000000000000000000000000000000000000000008116308114908115611382575b5061119857611232611c78565b8116906040516352d1902d60e01b8152602081600481865afa5f918161134e575b5061127157604051634c9c8ce360e01b815260048101849052602490fd5b7f360894a13ba1a3210667c828492db98dca3e2076cc3735a920a3ca505d382bbc929192908181036113365750823b1561131d5780546001600160a01b03191682179055604051907fbc7cd75a20ee27fd9adebab32041f755214dbc6bffa90cc0225b39da2e5c2d3b5f80a282511561130457505f8083602061130295519101845af46112fc611a44565b91612139565b005b9150503461130e57005b63b398979f60e01b8152600490fd5b604051634c9c8ce360e01b815260048101839052602490fd5b60249060405190632a87526960e21b82526004820152fd5b9091506020813d60201161137a575b8161136a60209383611923565b8101031261083e57519085611253565b3d915061135d565b9050817f360894a13ba1a3210667c828492db98dca3e2076cc3735a920a3ca505d382bbc5416141584611225565b3461083e57604036600319011261083e576113c96118ae565b6113d16118c4565b7ff0c57e16840df040f15088dc2f81fe391c3923bec73e23a9662efc9c229c6a009182549160ff8360401c1615906001600160401b039384811693841580611885575b6001809614908161187b575b159081611872575b506118605767ffffffffffffffff198216851787556114589184611841575b50611450611f5f565b61012f611f5f565b611460611f5f565b60405161146c816118ed565b6011815260209470243ab6b0b72830b9b9a1b0b6b830b4b3b760791b8683015260405191611499836118ed565b858352603160f81b878401526114ad611f5f565b6114b5611f5f565b8051828111610acc577fa16a46d94261c7517cc8ff89f61c0ce93598e3c849801011dee649a6a557d10290806114eb8354611cf3565b93601f948581116117d5575b508a90858311600114611756575f9261174b575b50505f19600383901b1c191690881b1790555b8251918211610acc5781907fa16a46d94261c7517cc8ff89f61c0ce93598e3c849801011dee649a6a557d103936115558554611cf3565b8281116116dd575b5088918311600114611660575f92611655575b50505f19600383901b1c191690851b1790555b5f7fa16a46d94261c7517cc8ff89f61c0ce93598e3c849801011dee649a6a557d100555f7fa16a46d94261c7517cc8ff89f61c0ce93598e3c849801011dee649a6a557d101556115d1611f5f565b6115d9611f5f565b5f8051602061226c8339815191528390556001600160a01b03166115fe811515611a00565b6bffffffffffffffffffffffff60a01b5f5416175f5561161a57005b7fc7f505b2f371ae2175ee4913f4499e1f2633a7b5936321eed1cdaeb6115181d29268ff0000000000000000198154169055604051908152a1005b015190508880611570565b90879350601f19831691855f527f5f9ce34815f8e11431c7bb75a8e6886a91478f7ffc1dbb0a98dc240fddd76b75925f5b8b8282106116c757505084116116af575b505050811b019055611583565b01515f1960f88460031b161c191690558880806116a2565b8385015186558b97909501949384019301611691565b90919250845f527f5f9ce34815f8e11431c7bb75a8e6886a91478f7ffc1dbb0a98dc240fddd76b758380860160051c8201928b8710611742575b9186958b929594930160051c01915b82811061173457505061155d565b5f81558695508a9101611726565b92508192611717565b015190508b8061150b565b5f8581528b94507f42ad5d3e1f2e6e70edcf6d991b8a3023d3fca8047a131592f9edb9fd9b89d57d929190601f198516908e5b8282106117be57505084116117a6575b505050811b01905561151e565b01515f1960f88460031b161c191690558b8080611799565b8385015186558e979095019493840193018e611789565b909150835f527f42ad5d3e1f2e6e70edcf6d991b8a3023d3fca8047a131592f9edb9fd9b89d57d8580850160051c8201928d8610611838575b918c91869594930160051c01915b82811061182a5750506114f7565b5f81558594508c910161181c565b9250819261180e565b68ffffffffffffffffff19166801000000000000000117875587611447565b60405163f92ee8a960e01b8152600490fd5b90501588611428565b303b159150611420565b5083611414565b3461083e575f36600319011261083e575f546001600160a01b03168152602090f35b600435906001600160a01b038216820361083e57565b602435906001600160a01b038216820361083e57565b6001600160401b038111610acc57604052565b604081019081106001600160401b03821117610acc57604052565b608081019081106001600160401b03821117610acc57604052565b90601f801991011681019081106001600160401b03821117610acc57604052565b6001600160401b038111610acc57601f01601f191660200190565b92919261196b82611944565b916119796040519384611923565b82948184528183011161083e578281602093845f960137010152565b91908251928382525f5b8481106119bf575050825f602080949584010152601f8019910116010190565b60208183018101518483018201520161199f565b9181601f8401121561083e578235916001600160401b03831161083e576020838186019501011161083e57565b15611a0757565b60405162461bcd60e51b815260206004820152601560248201527424b73b30b634b21039b2b93b32b91039b4b3b732b960591b6044820152606490fd5b3d15611a6e573d90611a5582611944565b91611a636040519384611923565b82523d5f602084013e565b606090565b15611a7a57565b60405162461bcd60e51b815260206004820152601160248201527014da59db985d1d5c9948195e1c1a5c9959607a1b6044820152606490fd5b15611aba57565b60405162461bcd60e51b815260206004820152601860248201527f43616d706169676e20494420616c7265616479207573656400000000000000006044820152606490fd5b15611b0657565b60405162461bcd60e51b8152602060048201526012602482015271131a5b9ac81d985d5b1d081b9bdd081cd95d60721b6044820152606490fd5b15611b4757565b60405162461bcd60e51b815260206004820152601e60248201527f416d6f756e7473206d7573742062652067726561746572207468616e203000006044820152606490fd5b15611b9357565b60405162461bcd60e51b815260206004820152601860248201527f496e76616c696420736572766572207369676e617475726500000000000000006044820152606490fd5b6001600160a01b03908116908115611c31575f8051602061224c83398151915280546001600160a01b031981168417909155167f8be0079c531659141344cd1fd0a4f28419497f9722a3daafe3b4186f6b6457e05f80a3565b604051631e4fbdf760e01b81525f6004820152602490fd5b5f8051602061226c8339815191526002815414611c665760029055565b604051633ee5aeb560e01b8152600490fd5b5f8051602061224c833981519152546001600160a01b03163303611c9857565b60405163118cdaa760e01b8152336004820152602490fd5b60405163a9059cbb60e01b60208201526001600160a01b03929092166024830152604480830193909352918152611cf191611cec606483611923565b611fa0565b565b90600182811c92168015611d21575b6020831014611d0d57565b634e487b7160e01b5f52602260045260245ffd5b91607f1691611d02565b604051905f827fa16a46d94261c7517cc8ff89f61c0ce93598e3c849801011dee649a6a557d10291825492611d5f84611cf3565b80845293602091600191828116908115611deb5750600114611d8b575b505050611cf192500383611923565b5f9081527f42ad5d3e1f2e6e70edcf6d991b8a3023d3fca8047a131592f9edb9fd9b89d57d9590935091905b828410611dd35750611cf19450505081016020015f8080611d7c565b85548885018301529485019487945092810192611db7565b9250505060209250611cf194915060ff191682840152151560051b8201015f8080611d7c565b604051905f827fa16a46d94261c7517cc8ff89f61c0ce93598e3c849801011dee649a6a557d10391825492611e4584611cf3565b80845293602091600191828116908115611deb5750600114611e7057505050611cf192500383611923565b5f9081527f5f9ce34815f8e11431c7bb75a8e6886a91478f7ffc1dbb0a98dc240fddd76b759590935091905b828410611eb85750611cf19450505081016020015f8080611d7c565b85548885018301529485019487945092810192611e9c565b611ed861219c565b611ee0612206565b916040519260208401927f8b73c3c69bb8fe3d512ecc4cf759cc79239f7b179b0ffacaa9a75d522b39400f8452604085015260608401524660808401523060a084015260a0835260c08301918383106001600160401b03841117610acc5760429360e291846040528151902061190160f01b855260c282015201522090565b60ff7ff0c57e16840df040f15088dc2f81fe391c3923bec73e23a9662efc9c229c6a005460401c1615611f8e57565b604051631afcd79f60e31b8152600490fd5b905f602091828151910182855af115610833575f513d611ff157506001600160a01b0381163b155b611fcf5750565b604051635274afe760e01b81526001600160a01b039091166004820152602490fd5b60011415611fc8565b815191906041830361202a576120239250602082015190606060408401519301515f1a906120b7565b9192909190565b50505f9160029190565b60048110156120a35780612046575050565b600181036120605760405163f645eedf60e01b8152600490fd5b600281036120815760405163fce698f760e01b815260048101839052602490fd5b60031461208b5750565b602490604051906335e2f38360e21b82526004820152fd5b634e487b7160e01b5f52602160045260245ffd5b91907f7fffffffffffffffffffffffffffffff5d576e7357a4501ddfe92f46681b20a0841161212e579160209360809260ff5f9560405194855216868401526040830152606082015282805260015afa15610833575f516001600160a01b0381161561212457905f905f90565b505f906001905f90565b5050505f9160039190565b90612160575080511561214e57602081519101fd5b60405163d6bda27560e01b8152600490fd5b81511580612193575b612171575090565b604051639996b31560e01b81526001600160a01b039091166004820152602490fd5b50803b15612169565b6121a4611d2b565b80519081156121b4576020012090565b50507fa16a46d94261c7517cc8ff89f61c0ce93598e3c849801011dee649a6a557d1005480156121e15790565b507fc5d2460186f7233c927e7db2dcc703c0e500b653ca82273b7bfad8045d85a47090565b61220e611e11565b805190811561221e576020012090565b50507fa16a46d94261c7517cc8ff89f61c0ce93598e3c849801011dee649a6a557d1015480156121e1579056fe9016d09d72d40fdae2fd8ceac6b6234c7706214fd39c1cd1e609a0528c1993009b779b17422d0df92223018b32b4d1fa46e071723d6817e2486d003becc55f00a26469706673582212206020626674259d4049ac1da230eb1f3a3e72245ab8b97d7c11e828fe32bb3e8864736f6c63430008160033",
    "linkReferences": {}
  },
  "methodIdentifiers": {
    "UPGRADE_INTERFACE_VERSION()": "ad3cb1cc",
    "claimCampaignReward(address,address,uint256,uint256,bytes32,uint256,bytes32,bytes)": "be4e5b81",
    "claimCampaignRewardEth(uint256,uint256,bytes32,uint256,bytes32,bytes)": "cf8bbc59",
    "eip712Domain()": "84b0196e",
    "emergencyWithdraw(address,uint256,address)": "551512de",
    "initialize(address,address)": "485cc955",
    "isCampaignIdUsed(bytes32)": "99ec008e",
    "linkVault()": "766ca628",
    "owner()": "8da5cb5b",
    "proxiableUUID()": "52d1902d",
    "renounceOwnership()": "715018a6",
    "serverSigner()": "31af1908",
    "setLinkVault(address)": "68148160",
    "setServerSigner(address)": "98e86281",
    "transferOwnership(address)": "f2fde38b",
    "upgradeToAndCall(address,bytes)": "4f1ef286",
    "usedCampaignIds(bytes32)": "fdf8ad59"
  },
  "id": 45
}