{"abi":[{"type":"constructor","inputs":[],"stateMutability":"nonpayable"},{"type":"function","name":"UPGRADE_INTERFACE_VERSION","inputs":[],"outputs":[{"name":"","type":"string","internalType":"string"}],"stateMutability":"view"},{"type":"function","name":"approve","inputs":[{"name":"to","type":"address","internalType":"address"},{"name":"tokenId","type":"uint256","internalType":"uint256"}],"outputs":[],"stateMutability":"nonpayable"},{"type":"function","name":"balanceOf","inputs":[{"name":"owner","type":"address","internalType":"address"}],"outputs":[{"name":"","type":"uint256","internalType":"uint256"}],"stateMutability":"view"},{"type":"function","name":"burn","inputs":[{"name":"data","type":"tuple","internalType":"struct HumanBoundTokenDeviceUpgradeable.BurnData","components":[{"name":"tokenId","type":"uint256","internalType":"uint256"},{"name":"deadline","type":"uint256","internalType":"uint256"},{"name":"nonce","type":"uint256","internalType":"uint256"},{"name":"serverSignature","type":"bytes","internalType":"bytes"}]}],"outputs":[],"stateMutability":"nonpayable"},{"type":"function","name":"eip712Domain","inputs":[],"outputs":[{"name":"fields","type":"bytes1","internalType":"bytes1"},{"name":"name","type":"string","internalType":"string"},{"name":"version","type":"string","internalType":"string"},{"name":"chainId","type":"uint256","internalType":"uint256"},{"name":"verifyingContract","type":"address","internalType":"address"},{"name":"salt","type":"bytes32","internalType":"bytes32"},{"name":"extensions","type":"uint256[]","internalType":"uint256[]"}],"stateMutability":"view"},{"type":"function","name":"getApproved","inputs":[{"name":"tokenId","type":"uint256","internalType":"uint256"}],"outputs":[{"name":"","type":"address","internalType":"address"}],"stateMutability":"view"},{"type":"function","name":"getTokenOwner","inputs":[{"name":"tokenId","type":"uint256","internalType":"uint256"}],"outputs":[{"name":"","type":"address","internalType":"address"}],"stateMutability":"view"},{"type":"function","name":"getTokenOwnerSafe","inputs":[{"name":"tokenId","type":"uint256","internalType":"uint256"}],"outputs":[{"name":"owner","type":"address","internalType":"address"}],"stateMutability":"view"},{"type":"function","name":"getUserTokenId","inputs":[{"name":"user","type":"address","internalType":"address"}],"outputs":[{"name":"","type":"uint256","internalType":"uint256"}],"stateMutability":"view"},{"type":"function","name":"initialize","inputs":[{"name":"initialOwner","type":"address","internalType":"address"},{"name":"_serverSigner","type":"address","internalType":"address"},{"name":"name","type":"string","internalType":"string"},{"name":"symbol","type":"string","internalType":"string"}],"outputs":[],"stateMutability":"nonpayable"},{"type":"function","name":"isApprovedForAll","inputs":[{"name":"owner","type":"address","internalType":"address"},{"name":"operator","type":"address","internalType":"address"}],"outputs":[{"name":"","type":"bool","internalType":"bool"}],"stateMutability":"view"},{"type":"function","name":"isHuman","inputs":[{"name":"user","type":"address","internalType":"address"}],"outputs":[{"name":"","type":"bool","internalType":"bool"}],"stateMutability":"view"},{"type":"function","name":"isHumanBatch","inputs":[{"name":"users","type":"address[]","internalType":"address[]"}],"outputs":[{"name":"results","type":"bool[]","internalType":"bool[]"}],"stateMutability":"view"},{"type":"function","name":"isNonceUsed","inputs":[{"name":"nonce","type":"uint256","internalType":"uint256"}],"outputs":[{"name":"","type":"bool","internalType":"bool"}],"stateMutability":"view"},{"type":"function","name":"mint","inputs":[{"name":"data","type":"tuple","internalType":"struct HumanBoundTokenDeviceUpgradeable.MintData","components":[{"name":"to","type":"address","internalType":"address"},{"name":"tokenId","type":"uint256","internalType":"uint256"},{"name":"tokenURI","type":"string","internalType":"string"},{"name":"deadline","type":"uint256","internalType":"uint256"},{"name":"nonce","type":"uint256","internalType":"uint256"},{"name":"serverSignature","type":"bytes","internalType":"bytes"}]}],"outputs":[],"stateMutability":"nonpayable"},{"type":"function","name":"name","inputs":[],"outputs":[{"name":"","type":"string","internalType":"string"}],"stateMutability":"view"},{"type":"function","name":"owner","inputs":[],"outputs":[{"name":"","type":"address","internalType":"address"}],"stateMutability":"view"},{"type":"function","name":"ownerOf","inputs":[{"name":"tokenId","type":"uint256","internalType":"uint256"}],"outputs":[{"name":"","type":"address","internalType":"address"}],"stateMutability":"view"},{"type":"function","name":"pause","inputs":[],"outputs":[],"stateMutability":"nonpayable"},{"type":"function","name":"paused","inputs":[],"outputs":[{"name":"","type":"bool","internalType":"bool"}],"stateMutability":"view"},{"type":"function","name":"proxiableUUID","inputs":[],"outputs":[{"name":"","type":"bytes32","internalType":"bytes32"}],"stateMutability":"view"},{"type":"function","name":"renounceOwnership","inputs":[],"outputs":[],"stateMutability":"nonpayable"},{"type":"function","name":"safeTransferFrom","inputs":[{"name":"from","type":"address","internalType":"address"},{"name":"to","type":"address","internalType":"address"},{"name":"tokenId","type":"uint256","internalType":"uint256"}],"outputs":[],"stateMutability":"nonpayable"},{"type":"function","name":"safeTransferFrom","inputs":[{"name":"from","type":"address","internalType":"address"},{"name":"to","type":"address","internalType":"address"},{"name":"tokenId","type":"uint256","internalType":"uint256"},{"name":"data","type":"bytes","internalType":"bytes"}],"outputs":[],"stateMutability":"nonpayable"},{"type":"function","name":"serverSigner","inputs":[],"outputs":[{"name":"","type":"address","internalType":"address"}],"stateMutability":"view"},{"type":"function","name":"setApprovalForAll","inputs":[{"name":"operator","type":"address","internalType":"address"},{"name":"approved","type":"bool","internalType":"bool"}],"outputs":[],"stateMutability":"nonpayable"},{"type":"function","name":"setServerSigner","inputs":[{"name":"newServerSigner","type":"address","internalType":"address"}],"outputs":[],"stateMutability":"nonpayable"},{"type":"function","name":"setTokenURI","inputs":[{"name":"tokenId","type":"uint256","internalType":"uint256"},{"name":"uri","type":"string","internalType":"string"}],"outputs":[],"stateMutability":"nonpayable"},{"type":"function","name":"supportsInterface","inputs":[{"name":"interfaceId","type":"bytes4","internalType":"bytes4"}],"outputs":[{"name":"","type":"bool","internalType":"bool"}],"stateMutability":"view"},{"type":"function","name":"symbol","inputs":[],"outputs":[{"name":"","type":"string","internalType":"string"}],"stateMutability":"view"},{"type":"function","name":"tokenExists","inputs":[{"name":"tokenId","type":"uint256","internalType":"uint256"}],"outputs":[{"name":"","type":"bool","internalType":"bool"}],"stateMutability":"view"},{"type":"function","name":"tokenURI","inputs":[{"name":"tokenId","type":"uint256","internalType":"uint256"}],"outputs":[{"name":"","type":"string","internalType":"string"}],"stateMutability":"view"},{"type":"function","name":"totalSupply","inputs":[],"outputs":[{"name":"","type":"uint256","internalType":"uint256"}],"stateMutability":"view"},{"type":"function","name":"transferFrom","inputs":[{"name":"from","type":"address","internalType":"address"},{"name":"to","type":"address","internalType":"address"},{"name":"tokenId","type":"uint256","internalType":"uint256"}],"outputs":[],"stateMutability":"nonpayable"},{"type":"function","name":"transferOwnership","inputs":[{"name":"newOwner","type":"address","internalType":"address"}],"outputs":[],"stateMutability":"nonpayable"},{"type":"function","name":"unpause","inputs":[],"outputs":[],"stateMutability":"nonpayable"},{"type":"function","name":"upgradeToAndCall","inputs":[{"name":"newImplementation","type":"address","internalType":"address"},{"name":"data","type":"bytes","internalType":"bytes"}],"outputs":[],"stateMutability":"payable"},{"type":"function","name":"usedServerNonces","inputs":[{"name":"","type":"uint256","internalType":"uint256"}],"outputs":[{"name":"","type":"bool","internalType":"bool"}],"stateMutability":"view"},{"type":"event","name":"Approval","inputs":[{"name":"owner","type":"address","indexed":true,"internalType":"address"},{"name":"approved","type":"address","indexed":true,"internalType":"address"},{"name":"tokenId","type":"uint256","indexed":true,"internalType":"uint256"}],"anonymous":false},{"type":"event","name":"ApprovalForAll","inputs":[{"name":"owner","type":"address","indexed":true,"internalType":"address"},{"name":"operator","type":"address","indexed":true,"internalType":"address"},{"name":"approved","type":"bool","indexed":false,"internalType":"bool"}],"anonymous":false},{"type":"event","name":"EIP712DomainChanged","inputs":[],"anonymous":false},{"type":"event","name":"Initialized","inputs":[{"name":"version","type":"uint64","indexed":false,"internalType":"uint64"}],"anonymous":false},{"type":"event","name":"OwnershipTransferred","inputs":[{"name":"previousOwner","type":"address","indexed":true,"internalType":"address"},{"name":"newOwner","type":"address","indexed":true,"internalType":"address"}],"anonymous":false},{"type":"event","name":"Paused","inputs":[{"name":"account","type":"address","indexed":false,"internalType":"address"}],"anonymous":false},{"type":"event","name":"ServerSignerUpdated","inputs":[{"name":"prev","type":"address","indexed":true,"internalType":"address"},{"name":"next","type":"address","indexed":true,"internalType":"address"}],"anonymous":false},{"type":"event","name":"TokenBurned","inputs":[{"name":"tokenId","type":"uint256","indexed":true,"internalType":"uint256"}],"anonymous":false},{"type":"event","name":"TokenBurnedWithDetails","inputs":[{"name":"tokenId","type":"uint256","indexed":true,"internalType":"uint256"},{"name":"previousOwner","type":"address","indexed":true,"internalType":"address"},{"name":"timestamp","type":"uint256","indexed":false,"internalType":"uint256"},{"name":"totalSupply","type":"uint256","indexed":false,"internalType":"uint256"}],"anonymous":false},{"type":"event","name":"TokenMinted","inputs":[{"name":"to","type":"address","indexed":true,"internalType":"address"},{"name":"tokenId","type":"uint256","indexed":true,"internalType":"uint256"},{"name":"tokenURI","type":"string","indexed":false,"internalType":"string"}],"anonymous":false},{"type":"event","name":"TokenMintedWithDetails","inputs":[{"name":"to","type":"address","indexed":true,"internalType":"address"},{"name":"tokenId","type":"uint256","indexed":true,"internalType":"uint256"},{"name":"tokenURI","type":"string","indexed":false,"internalType":"string"},{"name":"timestamp","type":"uint256","indexed":false,"internalType":"uint256"},{"name":"totalSupply","type":"uint256","indexed":false,"internalType":"uint256"}],"anonymous":false},{"type":"event","name":"Transfer","inputs":[{"name":"from","type":"address","indexed":true,"internalType":"address"},{"name":"to","type":"address","indexed":true,"internalType":"address"},{"name":"tokenId","type":"uint256","indexed":true,"internalType":"uint256"}],"anonymous":false},{"type":"event","name":"Unpaused","inputs":[{"name":"account","type":"address","indexed":false,"internalType":"address"}],"anonymous":false},{"type":"event","name":"Upgraded","inputs":[{"name":"implementation","type":"address","indexed":true,"internalType":"address"}],"anonymous":false},{"type":"error","name":"AddressEmptyCode","inputs":[{"name":"target","type":"address","internalType":"address"}]},{"type":"error","name":"ECDSAInvalidSignature","inputs":[]},{"type":"error","name":"ECDSAInvalidSignatureLength","inputs":[{"name":"length","type":"uint256","internalType":"uint256"}]},{"type":"error","name":"ECDSAInvalidSignatureS","inputs":[{"name":"s","type":"bytes32","internalType":"bytes32"}]},{"type":"error","name":"ERC1967InvalidImplementation","inputs":[{"name":"implementation","type":"address","internalType":"address"}]},{"type":"error","name":"ERC1967NonPayable","inputs":[]},{"type":"error","name":"ERC721IncorrectOwner","inputs":[{"name":"sender","type":"address","internalType":"address"},{"name":"tokenId","type":"uint256","internalType":"uint256"},{"name":"owner","type":"address","internalType":"address"}]},{"type":"error","name":"ERC721InsufficientApproval","inputs":[{"name":"operator","type":"address","internalType":"address"},{"name":"tokenId","type":"uint256","internalType":"uint256"}]},{"type":"error","name":"ERC721InvalidApprover","inputs":[{"name":"approver","type":"address","internalType":"address"}]},{"type":"error","name":"ERC721InvalidOperator","inputs":[{"name":"operator","type":"address","internalType":"address"}]},{"type":"error","name":"ERC721InvalidOwner","inputs":[{"name":"owner","type":"address","internalType":"address"}]},{"type":"error","name":"ERC721InvalidReceiver","inputs":[{"name":"receiver","type":"address","internalType":"address"}]},{"type":"error","name":"ERC721InvalidSender","inputs":[{"name":"sender","type":"address","internalType":"address"}]},{"type":"error","name":"ERC721NonexistentToken","inputs":[{"name":"tokenId","type":"uint256","internalType":"uint256"}]},{"type":"error","name":"EnforcedPause","inputs":[]},{"type":"error","name":"ExpectedPause","inputs":[]},{"type":"error","name":"FailedCall","inputs":[]},{"type":"error","name":"InvalidInitialization","inputs":[]},{"type":"error","name":"NotInitializing","inputs":[]},{"type":"error","name":"OwnableInvalidOwner","inputs":[{"name":"owner","type":"address","internalType":"address"}]},{"type":"error","name":"OwnableUnauthorizedAccount","inputs":[{"name":"account","type":"address","internalType":"address"}]},{"type":"error","name":"UUPSUnauthorizedCallContext","inputs":[]},{"type":"error","name":"UUPSUnsupportedProxiableUUID","inputs":[{"name":"slot","type":"bytes32","internalType":"bytes32"}]}],"bytecode":{"object":"0x60a080604052346100cd57306080527ff0c57e16840df040f15088dc2f81fe391c3923bec73e23a9662efc9c229c6a009081549060ff8260401c166100be57506001600160401b036002600160401b031982821601610079575b60405161330f9081620000d28239608051818181610db60152610e580152f35b6001600160401b031990911681179091556040519081527fc7f505b2f371ae2175ee4913f4499e1f2633a7b5936321eed1cdaeb6115181d290602090a15f8080610059565b63f92ee8a960e01b8152600490fd5b5f80fdfe6080604081815260049182361015610015575f80fd5b5f3560e01c908162923f9e146121905750806301ffc9a71461212457806306fdde0314612051578063081812fc1461200c578063095ea7b314611f2b578063162094c414611e1157806318160ddd14611df35780632016a0d21461167e57806323b872dd1461166757806331af1908146116405780633b177b61146110b65780633f4ba83a1461104157806342842e0e146110135780634f1ef28614610e1a57806352d1902d14610da35780635c16e44b14610d485780635c975abb14610d745780635d00bb1214610d485780636352211e14610d1957806370a0823114610cc4578063715018a614610c5d5780638456cb5914610bf857806384b0196e14610ab25780638da5cb5b14610a7e57806395d89b41146109ab578063962f33421461097c57806398e862811461090b5780639b0a3cd8146107b4578063a22cb4651461071b578063a5cd761f146106c8578063ad3cb1cc14610684578063b88d4fde1461062b578063c07c2415146103a3578063c87b56dd1461029b578063e985e9c514610251578063f2fde38b14610226578063f72c436f146101f85763fefd4e4f146101c0575f80fd5b346101f45760203660031901126101f4576020916001600160a01b036101e461220e565b165f528252805f20549051908152f35b5f80fd5b50346101f45760203660031901126101f45760209061021d61021861220e565b61289f565b90519015158152f35b346101f45760203660031901126101f45761024f61024261220e565b61024a612931565b61282e565b005b50346101f457806003193601126101f45760209061026d61220e565b61027e610278612224565b91612741565b9060018060a01b03165f52825260ff815f20541690519015158152f35b5090346101f457602090816003193601126101f457355f8181525f8051602061329a8339815191528352839020546102dd906001600160a01b03161515612528565b5f5260028152815f2091805180935f9080546102f881612349565b91828552600191876001821691825f1461037c57505060011461033c575b5050506103389291610329910385612284565b519282849384528301906121d0565b0390f35b8693505f92919252825f20915f925b8284106103645750505082010181610329610338610316565b8054848a01860152889550879490930192810161034b565b60ff19168782015293151560051b8601909301935084925061032991506103389050610316565b50346101f4576020906003199082823601126101f4578335916001600160401b03908184116101f45760808487019185360301126101f4576103e3612ad0565b6024840135936103f585421115612674565b604481013591825f526005875261041260ff865f205416156126b4565b803595865f525f8051602061329a833981519152885260018060a01b039461044086885f2054161515612528565b865190898201927fe4d65ca0f2e43b30d1455b26837994b76626a66f49ac778c56ba2d4f1525618b8452898984015260608301528560808301526080825260a082019082821090821117610618576104b96104cf9460646104b16104c6966104dc99966104c0968e52519020612afa565b940190612779565b36916122c0565b90612ffd565b90929192613037565b83805f54169116146127ab565b5f5260058452815f20600160ff198254161790556104f9836128eb565b81610503856129ff565b161561060157835f5260028552825f2061051d8154612349565b90816105c5575b5050835f5260038552825f206001600160601b0360a01b81541690551692835f528481525f8281205560015480156105b257907feb7717f3dccea1bbfe0f90da194d65edf439e4e7c577c2b3b96d642f7f60bec492915f190180600155825191857f0c526103b8f47af5516191d0c89a598755bd00faa211a3cb52e4c2cc782f7fe25f80a2428352820152a3005b601186634e487b7160e01b5f525260245ffd5b81601f5f93116001146105dc5750555b5f80610524565b9080839182526105fa601f8a8420940160051c84016001850161256b565b55556105d5565b8251637e27328960e01b8152808701859052602490fd5b60418b634e487b7160e01b5f525260245ffd5b82346101f45760803660031901126101f45761064561220e565b61064d612224565b604435906064356001600160401b0381116101f45761024f94610672913691016122f6565b9261067e838383612608565b33612bb8565b50346101f4575f3660031901126101f4578051610338916106a48261223a565b60058252640352e302e360dc1b6020830152519182916020835260208301906121d0565b50346101f45760203660031901126101f45760209135805f525f8051602061329a833981519152835260018060a01b039061070982845f2054161515612528565b5f5260038352815f2054169051908152f35b50346101f457806003193601126101f45761073461220e565b90602435918215158093036101f4576001600160a01b031692831561079f575061075d33612741565b835f52602052805f2060ff1981541660ff8416179055519081527f17307eab39ab6107e8899845ad3d59bd9653f200f220920489ca2b5937696c3160203392a3005b836024925191630b61174360e31b8352820152fd5b5090346101f457602090816003193601126101f4578035916001600160401b038084116101f457366023850112156101f457838301359081116101f4576024906005943660248360051b830101116101f4576108138297969597612817565b9661082087519889612284565b82885261082c83612817565b8886019690601f19013688375f5b8481106108855750505050505082519384938285019183865251809252840192915f5b82811061086c57505050500390f35b835115158552869550938101939281019260010161085d565b9798969780821b6001600160a01b03806108a28784018a016126f5565b165f528489528b5f20549081151591826108e8575b505089518310156108d65715159089018801529698979660010161083a565b87603286634e487b7160e01b5f52525ffd5b9091505f525f8051602061329a83398151915289528b5f20541615155f806108b7565b346101f45760203660031901126101f45761092461220e565b61092c612931565b6001600160a01b03908116906109438215156125c4565b815f549182167f8aca81b772b289537bcc2c109e400ab186c91216ba0e41570dd28dfff23dddad5f80a36001600160a01b031916175f55005b50346101f45760203660031901126101f457602091355f526003825260018060a01b03815f2054169051908152f35b50346101f4575f3660031901126101f4578051905f90827f80bb2b638cc20bc4d0a60d66940f3ab4a00c1d7b313497ca82fb0b4ab00793019283546109ef81612349565b90818452602095600191876001821691825f1461037c575050600114610a22575050506103389291610329910385612284565b5f90815286935091907ff4bad0a69248f59680a4f2b3000328cec71a413447c96781cfe5996daa8c456e5b828410610a665750505082010181610329610338610316565b8054848a018601528895508794909301928101610a4d565b50346101f4575f3660031901126101f4575f8051602061325a8339815191525490516001600160a01b039091168152602090f35b5090346101f4575f3660031901126101f4577fa16a46d94261c7517cc8ff89f61c0ce93598e3c849801011dee649a6a557d100541580610bcf575b15610b9557610b3982610afe612381565b90610b07612469565b610b46825192610b1684612269565b5f84526020928151968796600f60f81b885260e0602089015260e08801906121d0565b91868303908701526121d0565b4660608501523060808501525f60a085015283810360c0850152602080845192838152019301915f5b828110610b7e57505050500390f35b835185528695509381019392810192600101610b6f565b6020606492519162461bcd60e51b835282015260156024820152741152540dcc4c8e88155b9a5b9a5d1a585b1a5e9959605a1b6044820152fd5b507fa16a46d94261c7517cc8ff89f61c0ce93598e3c849801011dee649a6a557d1015415610aed565b50346101f4575f3660031901126101f45760207f62e78cea01bee320cd4e420270b5ea74000d11b0c9f74754ebdbfc544b05a25891610c35612931565b610c3d612ad0565b5f8051602061327a833981519152805460ff1916600117905551338152a1005b346101f4575f3660031901126101f457610c75612931565b5f8051602061325a83398151915280546001600160a01b031981169091555f906001600160a01b03167f8be0079c531659141344cd1fd0a4f28419497f9722a3daafe3b4186f6b6457e08280a3005b5090346101f45760203660031901126101f457610cdf61220e565b906001600160a01b03821615610d0357602083610cfb84612709565b549051908152f35b6024905f8451916322718ad960e21b8352820152fd5b50346101f45760203660031901126101f457610d37602092356128eb565b90516001600160a01b039091168152f35b50346101f45760203660031901126101f457602091355f526005825260ff815f20541690519015158152f35b50346101f4575f3660031901126101f45760209060ff5f8051602061327a833981519152541690519015158152f35b50346101f4575f3660031901126101f4577f00000000000000000000000000000000000000000000000000000000000000006001600160a01b03163003610e0d57602090517f360894a13ba1a3210667c828492db98dca3e2076cc3735a920a3ca505d382bbc8152f35b5163703e46dd60e11b8152fd5b5090816003193601126101f457610e2f61220e565b6024356001600160401b0381116101f457610e4d90369084016122f6565b926001600160a01b037f00000000000000000000000000000000000000000000000000000000000000008116308114908115610fe5575b50610fd557610e91612931565b82169181516352d1902d60e01b81526020818681875afa5f9181610fa1575b50610ecc57505051634c9c8ce360e01b81529182015260249150fd5b7f360894a13ba1a3210667c828492db98dca3e2076cc3735a920a3ca505d382bbc949392919490818103610f8b5750843b15610f755780546001600160a01b0319168317905551907fbc7cd75a20ee27fd9adebab32041f755214dbc6bffa90cc0225b39da2e5c2d3b5f80a2835115610f5e5750505f8083602061024f95519101845af4610f58612b89565b916131f6565b9150915034610f6957005b63b398979f60e01b8152fd5b5051634c9c8ce360e01b81529182015260249150fd5b84602491845191632a87526960e21b8352820152fd5b9091506020813d602011610fcd575b81610fbd60209383612284565b810103126101f45751905f610eb0565b3d9150610fb0565b815163703e46dd60e11b81528490fd5b9050817f360894a13ba1a3210667c828492db98dca3e2076cc3735a920a3ca505d382bbc541614155f610e84565b50346101f45761024f9061102636612314565b9192519261103384612269565b5f845261067e838383612608565b50346101f4575f3660031901126101f45761105a612931565b5f8051602061327a8339815191529182549060ff8216156110a8577f5db9ee0a495bf2e6ff9c91a7834c1ba4fdd244a5e8aa4e537bd38aeae4b073aa602084868560ff1916905551338152a1005b8251638dfc202b60e01b8152fd5b5090346101f45760206003199281843601126101f4578235926001600160401b03908185116101f45760c08582019686360301126101f4576110f6612ad0565b60648501359561110887421115612674565b608486013591825f526005865261112560ff865f205416156126b4565b6001600160a01b039283611138846126f5565b161561160957602490818901359889156115d45785611156866126f5565b165f52838952875f2054611592576104b99a611171866126f5565b90611181604484019d8e89612779565b8b8151910120908a5191898d8401947f4662a3273896a99ebee81a52233d8b45a819630f9ea3b070447a040d0383dfd98652168c8401528d6060840152608083015260a08201528360c082015260c0815260e081018181108a82111761158057926104c06104b960a461120461120c968f96611219996104c69852519020612afa565b93018a612779565b86805f54169116146127ab565b5f5260058752855f20946001958660ff19825416179055611239846126f5565b875161124481612269565b5f815286821691821561156b578761125c8d83612969565b16611556573b611457575b50506112738a85612779565b908a5f5260028a52885f2092821161144557611299826112938554612349565b85612581565b5f90601f83116001146113e3576112c792915f91836113d8575b50508160011b915f199060031b1c19161790565b90555b6112d3836126f5565b885f526003885284875f2091166001600160601b0360a01b825416179055836112fb846126f5565b165f5281875287865f20558454915f1983146113c75750507f502c1be138117a63ec4d9e16b9fa854e6dfdf89fd2c3fb797e954c1eefd8d89e9596978461139e920180955588887fdf92894dc4675a7333caa5903b69cf5d8e8ec0d3f361c88207b6688e525703bb8661136d876126f5565b61138c61137a878a612779565b8d5194859488865216968401916127f7565b0390a3611398836126f5565b92612779565b9390946113b781519687966060885260608801916127f7565b97429086015284015216930390a3005b601190634e487b7160e01b5f52525ffd5b013590505f806112b3565b5f8481528b81208a9493909291601f198516908e5b82821061142e5750508411611415575b505050811b0190556112ca565b01355f19600384901b60f8161c191690555f8080611408565b8385013586558d979095019492830192018e6113f8565b83604186634e487b7160e01b5f52525ffd5b93899794829a8c839d989594879f9a975f80918f6114a1905197889687958694630a85bd0160e11b9c8d8752339087015285015260448401526080606484015260848301906121d0565b03925af15f9181611516575b506114df578c8c8c8c8c6114bf612b89565b80519190826114dc575050505191633250574960e11b8352820152fd5b01fd5b63ffffffff60e09d95989d9c96999b9394979c1b160361150157505f80611267565b839150875191633250574960e11b8352820152fd5b9091508981813d831161154f575b61152e8183612284565b810103126101f457516001600160e01b0319811681036101f457905f6114ad565b503d611524565b89516339e3563760e11b81525f818801528590fd5b8951633250574960e11b81525f818801528590fd5b85604188634e487b7160e01b5f52525ffd5b875162461bcd60e51b81528085018a90526018818501527f5573657220616c726561647920686173206120746f6b656e00000000000000006044820152606490fd5b875162461bcd60e51b81528085018a90526010818501526f125b9d985b1a59081d1bdad95b88125160821b6044820152606490fd5b855162461bcd60e51b81528083018890526011602482015270125b9d985b1a59081c9958da5c1a595b9d607a1b6044820152606490fd5b50346101f4575f3660031901126101f4575f5490516001600160a01b039091168152602090f35b346101f45761024f61167836612314565b91612608565b5090346101f45760803660031901126101f45761169961220e565b6116a1612224565b6001600160401b03906044358281116101f4576116c190369086016122f6565b936064358381116101f4576116d990369083016122f6565b927ff0c57e16840df040f15088dc2f81fe391c3923bec73e23a9662efc9c229c6a009586549560ff878a1c16159583881697881580611dec575b6001809a149081611de2575b159081611dd9575b50611dc95767ffffffffffffffff19811689178a5587611daa575b5061174b612cd2565b611753612cd2565b8251848111611cd0577f80bb2b638cc20bc4d0a60d66940f3ab4a00c1d7b313497ca82fb0b4ab0079300906117888254612349565b94601f95868111611d5f575b50602090868311600114611ce3576117c292915f9183611a395750508160011b915f199060031b1c19161790565b90555b8051848111611cd0577f80bb2b638cc20bc4d0a60d66940f3ab4a00c1d7b313497ca82fb0b4ab0079301916117fa8354612349565b858111611c85575b50602090858311600114611c02579180611836926118499695945f92611a395750508160011b915f199060031b1c19161790565b90555b611841612cd2565b61024a612cd2565b611851612cd2565b87519261185d8461223a565b601584527448756d616e426f756e64546f6b656e44657669636560581b602085015288519361188b8561223a565b878552603160f81b60208601526118a0612cd2565b6118a8612cd2565b8051848111611bef577fa16a46d94261c7517cc8ff89f61c0ce93598e3c849801011dee649a6a557d102916118dd8354612349565b858111611ba4575b50602090858311600114611b285761191392915f9183611a395750508160011b915f199060031b1c19161790565b90555b8351928311611b1557507fa16a46d94261c7517cc8ff89f61c0ce93598e3c849801011dee649a6a557d1039261194c8454612349565b828111611ac0575b506020918311600114611a445761198192915f9183611a395750508160011b915f199060031b1c19161790565b90555b5f7fa16a46d94261c7517cc8ff89f61c0ce93598e3c849801011dee649a6a557d100555f7fa16a46d94261c7517cc8ff89f61c0ce93598e3c849801011dee649a6a557d101556119d2612cd2565b6001600160a01b03166119e68115156125c4565b6001600160601b0360a01b5f5416175f556119fd57005b7fc7f505b2f371ae2175ee4913f4499e1f2633a7b5936321eed1cdaeb6115181d29260209268ff000000000000000019815416905551908152a1005b015190505f806112b3565b869291601f19831691855f527f5f9ce34815f8e11431c7bb75a8e6886a91478f7ffc1dbb0a98dc240fddd76b75925f5b818110611aa857508411611a90575b505050811b019055611984565b01515f1960f88460031b161c191690555f8080611a83565b8284015185558a969094019360209384019301611a74565b611b0690855f527f5f9ce34815f8e11431c7bb75a8e6886a91478f7ffc1dbb0a98dc240fddd76b758480870160051c82019260208810611b0c575b0160051c019061256b565b5f611954565b92508192611afb565b604190634e487b7160e01b5f525260245ffd5b8a9291601f19831691855f527f42ad5d3e1f2e6e70edcf6d991b8a3023d3fca8047a131592f9edb9fd9b89d57d925f5b818110611b8c57508411611b74575b505050811b019055611916565b01515f1960f88460031b161c191690555f8080611b67565b8284015185558e969094019360209384019301611b58565b611be990845f527f42ad5d3e1f2e6e70edcf6d991b8a3023d3fca8047a131592f9edb9fd9b89d57d8780860160051c82019260208710611b0c570160051c019061256b565b5f6118e5565b604183634e487b7160e01b5f525260245ffd5b9392918a91601f19821690845f527ff4bad0a69248f59680a4f2b3000328cec71a413447c96781cfe5996daa8c456e915f5b818110611c6d575096836118499810611c55575b505050811b019055611839565b01515f1960f88460031b161c191690555f8080611c48565b8289015184558e959093019260209283019201611c34565b611cca90845f527ff4bad0a69248f59680a4f2b3000328cec71a413447c96781cfe5996daa8c456e8780860160051c82019260208710611b0c570160051c019061256b565b5f611802565b604186634e487b7160e01b5f525260245ffd5b8b9291601f19831691855f527f37c58c799b6609234b945e882912ee9ad34948a1dfaa20a97485e1a7752bbf81925f5b818110611d4757508411611d2f575b505050811b0190556117c5565b01515f1960f88460031b161c191690555f8080611d22565b8284015185558f969094019360209384019301611d13565b611da490845f527f37c58c799b6609234b945e882912ee9ad34948a1dfaa20a97485e1a7752bbf818880860160051c82019260208710611b0c570160051c019061256b565b5f611794565b68ffffffffffffffffff1916680100000000000000011789555f611742565b8a5163f92ee8a960e01b81528690fd5b9050155f611727565b303b15915061171f565b5087611713565b50346101f4575f3660031901126101f4576020906001549051908152f35b5090346101f457816003193601126101f4576001600160401b0381356024358281116101f457611e4490369085016122f6565b93611e4d612931565b815f526020915f8051602061329a8339815191528352611e7960018060a01b03835f2054161515612528565b5f52600282525f20928451928311611b155750611e9a826112938554612349565b80601f8311600114611ecc57508190611ec893945f92611a395750508160011b915f199060031b1c19161790565b9055005b90601f19831694845f52825f20925f905b878210611f13575050836001959610611efb575b505050811b019055005b01515f1960f88460031b161c191690555f8080611ef1565b80600185968294968601518155019501930190611edd565b50346101f457806003193601126101f457611f4461220e565b9160243590611f52826128eb565b9033151580611ff9575b80611fdc575b611fc557506001600160a01b039384169382918591167f8c5be1e5ebec7d5bd14f71427d1e84f3dd0314c0f7b2291e5b200ac8c7c3b9255f80a45f9081525f805160206132ba8339815191526020522080546001600160a01b0319169091179055005b60249084519063a9fbf51f60e01b82523390820152fd5b50611fe682612741565b335f5260205260ff845f20541615611f62565b506001600160a01b038216331415611f5c565b50346101f45760203660031901126101f4576020913561202b816128eb565b505f525f805160206132ba833981519152825260018060a01b03815f2054169051908152f35b50346101f4575f3660031901126101f4578051905f90827f80bb2b638cc20bc4d0a60d66940f3ab4a00c1d7b313497ca82fb0b4ab007930092835461209581612349565b90818452602095600191876001821691825f1461037c5750506001146120c8575050506103389291610329910385612284565b5f90815286935091907f37c58c799b6609234b945e882912ee9ad34948a1dfaa20a97485e1a7752bbf815b82841061210c5750505082010181610329610338610316565b8054848a0186015288955087949093019281016120f3565b5090346101f45760203660031901126101f4573563ffffffff60e01b81168091036101f4576020916380ac58cd60e01b821491821561217f575b821561216e575b50519015158152f35b6301ffc9a760e01b1491505f612165565b635b5e139f60e01b8114925061215e565b919050346101f45760203660031901126101f45791355f9081525f8051602061329a8339815191526020908152929020546001600160a01b031615158152f35b91908251928382525f5b8481106121fa575050825f602080949584010152601f8019910116010190565b6020818301810151848301820152016121da565b600435906001600160a01b03821682036101f457565b602435906001600160a01b03821682036101f457565b604081019081106001600160401b0382111761225557604052565b634e487b7160e01b5f52604160045260245ffd5b602081019081106001600160401b0382111761225557604052565b90601f801991011681019081106001600160401b0382111761225557604052565b6001600160401b03811161225557601f01601f191660200190565b9291926122cc826122a5565b916122da6040519384612284565b8294818452818301116101f4578281602093845f960137010152565b9080601f830112156101f457816020612311933591016122c0565b90565b60609060031901126101f4576001600160a01b039060043582811681036101f4579160243590811681036101f4579060443590565b90600182811c92168015612377575b602083101461236357565b634e487b7160e01b5f52602260045260245ffd5b91607f1691612358565b604051905f827fa16a46d94261c7517cc8ff89f61c0ce93598e3c849801011dee649a6a557d102918254926123b584612349565b8084529360209160019182811690811561244357506001146123e3575b5050506123e192500383612284565b565b5f9081527f42ad5d3e1f2e6e70edcf6d991b8a3023d3fca8047a131592f9edb9fd9b89d57d9590935091905b82841061242b57506123e19450505081016020015f80806123d2565b8554888501830152948501948794509281019261240f565b92505050602092506123e194915060ff191682840152151560051b8201015f80806123d2565b604051905f827fa16a46d94261c7517cc8ff89f61c0ce93598e3c849801011dee649a6a557d1039182549261249d84612349565b8084529360209160019182811690811561244357506001146124c8575050506123e192500383612284565b5f9081527f5f9ce34815f8e11431c7bb75a8e6886a91478f7ffc1dbb0a98dc240fddd76b759590935091905b82841061251057506123e19450505081016020015f80806123d2565b855488850183015294850194879450928101926124f4565b1561252f57565b60405162461bcd60e51b8152602060048201526014602482015273151bdad95b88191bd95cc81b9bdd08195e1a5cdd60621b6044820152606490fd5b818110612576575050565b5f815560010161256b565b9190601f811161259057505050565b6123e1925f5260205f20906020601f840160051c830193106125ba575b601f0160051c019061256b565b90915081906125ad565b156125cb57565b60405162461bcd60e51b815260206004820152601560248201527424b73b30b634b21039b2b93b32b91039b4b3b732b960591b6044820152606490fd5b91906001600160a01b03908181161561265c576126288291843391612a39565b931692169082820361263957505050565b60649350604051926364283d7b60e01b8452600484015260248301526044820152fd5b604051633250574960e11b81525f6004820152602490fd5b1561267b57565b60405162461bcd60e51b815260206004820152601160248201527014da59db985d1d5c9948195e1c1a5c9959607a1b6044820152606490fd5b156126bb57565b60405162461bcd60e51b8152602060048201526012602482015271139bdb98d948185b1c9958591e481d5cd95960721b6044820152606490fd5b356001600160a01b03811681036101f45790565b6001600160a01b03165f9081527f80bb2b638cc20bc4d0a60d66940f3ab4a00c1d7b313497ca82fb0b4ab00793036020526040902090565b6001600160a01b03165f9081527f80bb2b638cc20bc4d0a60d66940f3ab4a00c1d7b313497ca82fb0b4ab00793056020526040902090565b903590601e19813603018212156101f457018035906001600160401b0382116101f4576020019181360383136101f457565b156127b257565b60405162461bcd60e51b815260206004820152601860248201527f496e76616c696420736572766572207369676e617475726500000000000000006044820152606490fd5b908060209392818452848401375f828201840152601f01601f1916010190565b6001600160401b0381116122555760051b60200190565b6001600160a01b03908116908115612887575f8051602061325a83398151915280546001600160a01b031981168417909155167f8be0079c531659141344cd1fd0a4f28419497f9722a3daafe3b4186f6b6457e05f80a3565b604051631e4fbdf760e01b81525f6004820152602490fd5b6001600160a01b039081165f9081526004602052604090205480156128e5575f525f8051602061329a83398151915260205260405f205416156128e157600190565b5f90565b50505f90565b5f8181525f8051602061329a83398151915260205260409020546001600160a01b0316908115612919575090565b60249060405190637e27328960e01b82526004820152fd5b5f8051602061325a833981519152546001600160a01b0316330361295157565b60405163118cdaa760e01b8152336004820152602490fd5b90805f525f8051602061329a83398151915260205260018060a01b038060405f205416156129f5578216156129ec5760405162461bcd60e51b815260206004820152602660248201527f536f756c20426f756e6420546f6b656e3a205472616e73666572206e6f7420616044820152651b1b1bddd95960d21b6064820152608490fd5b61231191612d13565b5061231191612d13565b5f8181525f8051602061329a83398151915260205260409020546001600160a01b031615612a305761231190612ddc565b61231190612ddc565b9190805f525f8051602061329a83398151915260205260018060a01b038060405f20541615612ac657831615612abd5760405162461bcd60e51b815260206004820152602660248201527f536f756c20426f756e6420546f6b656e3a205472616e73666572206e6f7420616044820152651b1b1bddd95960d21b6064820152608490fd5b61231192612e85565b5061231192612e85565b60ff5f8051602061327a8339815191525416612ae857565b60405163d93c066560e01b8152600490fd5b612b02613147565b612b0a6131b1565b916040519260208401927f8b73c3c69bb8fe3d512ecc4cf759cc79239f7b179b0ffacaa9a75d522b39400f8452604085015260608401524660808401523060a084015260a0835260c08301918383106001600160401b038411176122555760429360e291846040528151902061190160f01b855260c282015201522090565b3d15612bb3573d90612b9a826122a5565b91612ba86040519384612284565b82523d5f602084013e565b606090565b9291803b612bc8575b5050505050565b604051630a85bd0160e11b8082526001600160a01b03958616600483015292851660248201526044810193909352608060648401529092169260209082908190612c169060848301906121d0565b03815f875af15f9181612c8d575b50612c5b5782612c32612b89565b8051919082612c5457604051633250574960e11b815260048101839052602490fd5b6020915001fd5b6001600160e01b03191603612c7557505f80808080612bc1565b60249060405190633250574960e11b82526004820152fd5b9091506020813d602011612cca575b81612ca960209383612284565b810103126101f457516001600160e01b0319811681036101f457905f612c24565b3d9150612c9c565b60ff7ff0c57e16840df040f15088dc2f81fe391c3923bec73e23a9662efc9c229c6a005460401c1615612d0157565b604051631afcd79f60e31b8152600490fd5b90805f525f8051602061329a833981519152918260205260018060a01b03928360405f2054169384612da4575b82169182612d8e575b50825f5260205260405f20816001600160601b0360a01b825416179055827fddf252ad1be2c89b69c2b068fc378daa952ba7f163c4a11628f55a4df523b3ef5f80a490565b612d9790612709565b600181540190555f612d49565b5f805160206132ba83398151915260205260405f2080546001600160a01b0319169055612dd085612709565b80545f19019055612d40565b5f8181525f8051602061329a83398151915260208190526040909120546001600160a01b0316919082612e4d575b815f5260205260405f206001600160601b0360a01b81541690555f827fddf252ad1be2c89b69c2b068fc378daa952ba7f163c4a11628f55a4df523b3ef8280a490565b5f805160206132ba83398151915260205260405f2080546001600160a01b0319169055612e7983612709565b80545f19019055612e0a565b5f8281525f8051602061329a8339815191526020819052604091829020546001600160a01b0390811695811680151580612f5f575b505085612f24575b83169283612f0e575b50835f526020525f20816001600160601b0360a01b825416179055827fddf252ad1be2c89b69c2b068fc378daa952ba7f163c4a11628f55a4df523b3ef5f80a490565b612f1790612709565b600181540190555f612ecb565b5f8581525f805160206132ba83398151915260205283902080546001600160a01b0319169055612f5386612709565b80545f19019055612ec2565b80612faf575b15612f705780612eba565b9350505092155f14612f9357506024915190637e27328960e01b82526004820152fd5b90604492519163177e802f60e01b835260048301526024820152fd5b508087148015612fe1575b80612f655750855f525f805160206132ba8339815191526020528082855f20541614612f65565b50612feb87612741565b815f5260205260ff845f205416612fba565b815191906041830361302d576130269250602082015190606060408401519301515f1a906130ba565b9192909190565b50505f9160029190565b60048110156130a65780613049575050565b600181036130635760405163f645eedf60e01b8152600490fd5b600281036130845760405163fce698f760e01b815260048101839052602490fd5b60031461308e5750565b602490604051906335e2f38360e21b82526004820152fd5b634e487b7160e01b5f52602160045260245ffd5b91907f7fffffffffffffffffffffffffffffff5d576e7357a4501ddfe92f46681b20a0841161313c579160209360809260ff5f9560405194855216868401526040830152606082015282805260015afa15613131575f516001600160a01b0381161561312757905f905f90565b505f906001905f90565b6040513d5f823e3d90fd5b5050505f9160039190565b61314f612381565b805190811561315f576020012090565b50507fa16a46d94261c7517cc8ff89f61c0ce93598e3c849801011dee649a6a557d10054801561318c5790565b507fc5d2460186f7233c927e7db2dcc703c0e500b653ca82273b7bfad8045d85a47090565b6131b9612469565b80519081156131c9576020012090565b50507fa16a46d94261c7517cc8ff89f61c0ce93598e3c849801011dee649a6a557d10154801561318c5790565b9061321d575080511561320b57602081519101fd5b60405163d6bda27560e01b8152600490fd5b81511580613250575b61322e575090565b604051639996b31560e01b81526001600160a01b039091166004820152602490fd5b50803b1561322656fe9016d09d72d40fdae2fd8ceac6b6234c7706214fd39c1cd1e609a0528c199300cd5ed15c6e187e77e9aee88184c21f4f2182ab5827cb3b7e07fbedcd63f0330080bb2b638cc20bc4d0a60d66940f3ab4a00c1d7b313497ca82fb0b4ab007930280bb2b638cc20bc4d0a60d66940f3ab4a00c1d7b313497ca82fb0b4ab0079304a2646970667358221220130c1616a97258ecde3268d536dec1763f03d1db0099b0dd6452ecccd8a0064064736f6c63430008160033","linkReferences":{}},"methodIdentifiers":{"UPGRADE_INTERFACE_VERSION()":"ad3cb1cc","approve(address,uint256)":"095ea7b3","balanceOf(address)":"70a08231","burn((uint256,uint256,uint256,bytes))":"c07c2415","eip712Domain()":"84b0196e","getApproved(uint256)":"081812fc","getTokenOwner(uint256)":"a5cd761f","getTokenOwnerSafe(uint256)":"962f3342","getUserTokenId(address)":"fefd4e4f","initialize(address,address,string,string)":"2016a0d2","isApprovedForAll(address,address)":"e985e9c5","isHuman(address)":"f72c436f","isHumanBatch(address[])":"9b0a3cd8","isNonceUsed(uint256)":"5d00bb12","mint((address,uint256,string,uint256,uint256,bytes))":"3b177b61","name()":"06fdde03","owner()":"8da5cb5b","ownerOf(uint256)":"6352211e","pause()":"8456cb59","paused()":"5c975abb","proxiableUUID()":"52d1902d","renounceOwnership()":"715018a6","safeTransferFrom(address,address,uint256)":"42842e0e","safeTransferFrom(address,address,uint256,bytes)":"b88d4fde","serverSigner()":"31af1908","setApprovalForAll(address,bool)":"a22cb465","setServerSigner(address)":"98e86281","setTokenURI(uint256,string)":"162094c4","supportsInterface(bytes4)":"01ffc9a7","symbol()":"95d89b41","tokenExists(uint256)":"00923f9e","tokenURI(uint256)":"c87b56dd","totalSupply()":"18160ddd","transferFrom(address,address,uint256)":"23b872dd","transferOwnership(address)":"f2fde38b","unpause()":"3f4ba83a","upgradeToAndCall(address,bytes)":"4f1ef286","usedServerNonces(uint256)":"5c16e44b"},"id":33}