{"abi":[{"type":"constructor","inputs":[],"stateMutability":"nonpayable"},{"type":"receive","stateMutability":"payable"},{"type":"function","name":"PERMIT2","inputs":[],"outputs":[{"name":"","type":"address","internalType":"contract ISignatureTransfer"}],"stateMutability":"view"},{"type":"function","name":"UPGRADE_INTERFACE_VERSION","inputs":[],"outputs":[{"name":"","type":"string","internalType":"string"}],"stateMutability":"view"},{"type":"function","name":"depositERC20","inputs":[{"name":"linkId","type":"bytes32","internalType":"bytes32"},{"name":"permit","type":"tuple","internalType":"struct ISignatureTransfer.PermitTransferFrom","components":[{"name":"permitted","type":"tuple","internalType":"struct ISignatureTransfer.TokenPermissions","components":[{"name":"token","type":"address","internalType":"address"},{"name":"amount","type":"uint256","internalType":"uint256"}]},{"name":"nonce","type":"uint256","internalType":"uint256"},{"name":"deadline","type":"uint256","internalType":"uint256"}]},{"name":"transferDetails","type":"tuple","internalType":"struct ISignatureTransfer.SignatureTransferDetails","components":[{"name":"to","type":"address","internalType":"address"},{"name":"requestedAmount","type":"uint256","internalType":"uint256"}]},{"name":"signature","type":"bytes","internalType":"bytes"}],"outputs":[],"stateMutability":"nonpayable"},{"type":"function","name":"depositERC20For","inputs":[{"name":"linkId","type":"bytes32","internalType":"bytes32"},{"name":"token","type":"address","internalType":"address"},{"name":"from","type":"address","internalType":"address"},{"name":"amount","type":"uint256","internalType":"uint256"}],"outputs":[],"stateMutability":"nonpayable"},{"type":"function","name":"depositETH","inputs":[{"name":"linkId","type":"bytes32","internalType":"bytes32"}],"outputs":[],"stateMutability":"payable"},{"type":"function","name":"depositETHFor","inputs":[{"name":"linkId","type":"bytes32","internalType":"bytes32"},{"name":"from","type":"address","internalType":"address"}],"outputs":[],"stateMutability":"payable"},{"type":"function","name":"eip712Domain","inputs":[],"outputs":[{"name":"fields","type":"bytes1","internalType":"bytes1"},{"name":"name","type":"string","internalType":"string"},{"name":"version","type":"string","internalType":"string"},{"name":"chainId","type":"uint256","internalType":"uint256"},{"name":"verifyingContract","type":"address","internalType":"address"},{"name":"salt","type":"bytes32","internalType":"bytes32"},{"name":"extensions","type":"uint256[]","internalType":"uint256[]"}],"stateMutability":"view"},{"type":"function","name":"emergencyWithdraw","inputs":[{"name":"token","type":"address","internalType":"address"},{"name":"amount","type":"uint256","internalType":"uint256"},{"name":"recipient","type":"address","internalType":"address"}],"outputs":[],"stateMutability":"nonpayable"},{"type":"function","name":"getLinkBalance","inputs":[{"name":"linkId","type":"bytes32","internalType":"bytes32"},{"name":"token","type":"address","internalType":"address"}],"outputs":[{"name":"","type":"uint256","internalType":"uint256"}],"stateMutability":"view"},{"type":"function","name":"initialize","inputs":[{"name":"initialOwner","type":"address","internalType":"address"},{"name":"_serverSigner","type":"address","internalType":"address"}],"outputs":[],"stateMutability":"nonpayable"},{"type":"function","name":"isTransferIdUsed","inputs":[{"name":"transferId","type":"bytes32","internalType":"bytes32"}],"outputs":[{"name":"","type":"bool","internalType":"bool"}],"stateMutability":"view"},{"type":"function","name":"isWithdrawIdUsed","inputs":[{"name":"withdrawId","type":"bytes32","internalType":"bytes32"}],"outputs":[{"name":"","type":"bool","internalType":"bool"}],"stateMutability":"view"},{"type":"function","name":"linkBalances","inputs":[{"name":"","type":"bytes32","internalType":"bytes32"},{"name":"","type":"address","internalType":"address"}],"outputs":[{"name":"","type":"uint256","internalType":"uint256"}],"stateMutability":"view"},{"type":"function","name":"owner","inputs":[],"outputs":[{"name":"","type":"address","internalType":"address"}],"stateMutability":"view"},{"type":"function","name":"proxiableUUID","inputs":[],"outputs":[{"name":"","type":"bytes32","internalType":"bytes32"}],"stateMutability":"view"},{"type":"function","name":"renounceOwnership","inputs":[],"outputs":[],"stateMutability":"nonpayable"},{"type":"function","name":"serverSigner","inputs":[],"outputs":[{"name":"","type":"address","internalType":"address"}],"stateMutability":"view"},{"type":"function","name":"setServerSigner","inputs":[{"name":"newServerSigner","type":"address","internalType":"address"}],"outputs":[],"stateMutability":"nonpayable"},{"type":"function","name":"transferLinkBalances","inputs":[{"name":"linkId","type":"bytes32","internalType":"bytes32"},{"name":"recipient","type":"address","internalType":"address"},{"name":"deadline","type":"uint256","internalType":"uint256"},{"name":"transferId","type":"bytes32","internalType":"bytes32"},{"name":"serverSignature","type":"bytes","internalType":"bytes"}],"outputs":[],"stateMutability":"nonpayable"},{"type":"function","name":"transferOwnership","inputs":[{"name":"newOwner","type":"address","internalType":"address"}],"outputs":[],"stateMutability":"nonpayable"},{"type":"function","name":"upgradeToAndCall","inputs":[{"name":"newImplementation","type":"address","internalType":"address"},{"name":"data","type":"bytes","internalType":"bytes"}],"outputs":[],"stateMutability":"payable"},{"type":"function","name":"usedTransferIds","inputs":[{"name":"","type":"bytes32","internalType":"bytes32"}],"outputs":[{"name":"","type":"bool","internalType":"bool"}],"stateMutability":"view"},{"type":"function","name":"usedWithdrawIds","inputs":[{"name":"","type":"bytes32","internalType":"bytes32"}],"outputs":[{"name":"","type":"bool","internalType":"bool"}],"stateMutability":"view"},{"type":"function","name":"withdraw","inputs":[{"name":"token","type":"address","internalType":"address"},{"name":"amount","type":"uint256","internalType":"uint256"},{"name":"recipient","type":"address","internalType":"address"},{"name":"linkId","type":"bytes32","internalType":"bytes32"},{"name":"deadline","type":"uint256","internalType":"uint256"},{"name":"withdrawId","type":"bytes32","internalType":"bytes32"},{"name":"serverSignature","type":"bytes","internalType":"bytes"}],"outputs":[],"stateMutability":"nonpayable"},{"type":"event","name":"Deposit","inputs":[{"name":"linkId","type":"bytes32","indexed":true,"internalType":"bytes32"},{"name":"token","type":"address","indexed":true,"internalType":"address"},{"name":"depositor","type":"address","indexed":true,"internalType":"address"},{"name":"amount","type":"uint256","indexed":false,"internalType":"uint256"}],"anonymous":false},{"type":"event","name":"EIP712DomainChanged","inputs":[],"anonymous":false},{"type":"event","name":"EmergencyWithdraw","inputs":[{"name":"token","type":"address","indexed":true,"internalType":"address"},{"name":"recipient","type":"address","indexed":true,"internalType":"address"},{"name":"amount","type":"uint256","indexed":false,"internalType":"uint256"}],"anonymous":false},{"type":"event","name":"Initialized","inputs":[{"name":"version","type":"uint64","indexed":false,"internalType":"uint64"}],"anonymous":false},{"type":"event","name":"OwnershipTransferred","inputs":[{"name":"previousOwner","type":"address","indexed":true,"internalType":"address"},{"name":"newOwner","type":"address","indexed":true,"internalType":"address"}],"anonymous":false},{"type":"event","name":"ServerSignerUpdated","inputs":[{"name":"prev","type":"address","indexed":true,"internalType":"address"},{"name":"next","type":"address","indexed":true,"internalType":"address"}],"anonymous":false},{"type":"event","name":"TransferLinkBalances","inputs":[{"name":"linkId","type":"bytes32","indexed":true,"internalType":"bytes32"},{"name":"transferId","type":"bytes32","indexed":true,"internalType":"bytes32"},{"name":"tokens","type":"address[]","indexed":false,"internalType":"address[]"},{"name":"recipient","type":"address","indexed":false,"internalType":"address"}],"anonymous":false},{"type":"event","name":"Upgraded","inputs":[{"name":"implementation","type":"address","indexed":true,"internalType":"address"}],"anonymous":false},{"type":"event","name":"Withdraw","inputs":[{"name":"linkId","type":"bytes32","indexed":true,"internalType":"bytes32"},{"name":"withdrawId","type":"bytes32","indexed":true,"internalType":"bytes32"},{"name":"token","type":"address","indexed":false,"internalType":"address"},{"name":"recipient","type":"address","indexed":false,"internalType":"address"},{"name":"amount","type":"uint256","indexed":false,"internalType":"uint256"}],"anonymous":false},{"type":"error","name":"AddressEmptyCode","inputs":[{"name":"target","type":"address","internalType":"address"}]},{"type":"error","name":"ECDSAInvalidSignature","inputs":[]},{"type":"error","name":"ECDSAInvalidSignatureLength","inputs":[{"name":"length","type":"uint256","internalType":"uint256"}]},{"type":"error","name":"ECDSAInvalidSignatureS","inputs":[{"name":"s","type":"bytes32","internalType":"bytes32"}]},{"type":"error","name":"ERC1967InvalidImplementation","inputs":[{"name":"implementation","type":"address","internalType":"address"}]},{"type":"error","name":"ERC1967NonPayable","inputs":[]},{"type":"error","name":"FailedCall","inputs":[]},{"type":"error","name":"InvalidInitialization","inputs":[]},{"type":"error","name":"NotInitializing","inputs":[]},{"type":"error","name":"OwnableInvalidOwner","inputs":[{"name":"owner","type":"address","internalType":"address"}]},{"type":"error","name":"OwnableUnauthorizedAccount","inputs":[{"name":"account","type":"address","internalType":"address"}]},{"type":"error","name":"ReentrancyGuardReentrantCall","inputs":[]},{"type":"error","name":"SafeERC20FailedOperation","inputs":[{"name":"token","type":"address","internalType":"address"}]},{"type":"error","name":"UUPSUnauthorizedCallContext","inputs":[]},{"type":"error","name":"UUPSUnsupportedProxiableUUID","inputs":[{"name":"slot","type":"bytes32","internalType":"bytes32"}]}],"bytecode":{"object":"0x60a080604052346100cc57306080527ff0c57e16840df040f15088dc2f81fe391c3923bec73e23a9662efc9c229c6a009081549060ff8260401c166100bd57506001600160401b036002600160401b031982821601610078575b60405161296290816100d18239608051818181610a5d0152610b110152f35b6001600160401b031990911681179091556040519081527fc7f505b2f371ae2175ee4913f4499e1f2633a7b5936321eed1cdaeb6115181d290602090a15f8080610059565b63f92ee8a960e01b8152600490fd5b5f80fdfe6040608081526004908136101561001f575b5050361561001d575f80fd5b005b5f9160e05f35811c908162d42ce014611a455781630adb43b9146116e157816310d761031461164c5781631d464bd91461161f5781632e358dea146111f257816331af1908146111cb578163485cc95514610ccc5781634f1ef28614610ac157816352d1902d14610a49578163551512de146107e55781636afdd850146107bc578163715018a61461075557816372377733146104fd57816384b0196e1461038f5750806389f3b3a4146103635780638da5cb5b1461032e57806398e86281146102bb5780639b7cbeaa14610242578063ad3cb1cc1461026e578063b908376a1461024257838163d68d9d4e146101c557508063d7ce61dc146101a8578063f2fde38b146101785763f592e017146101375750610011565b3461017457816003193601126101745781602093610153611b80565b9235815260018552209060018060a01b03165f528252805f20549051908152f35b8280fd5b83346101a55760203660031901126101a5576101a2610195611bac565b61019d612418565b612039565b80f35b80fd5b503461017457816003193601126101745781602093610153611b80565b602081858536600319018413610174575f805160206128ed8339815191529035916101f1341515611f7b565b828452600185528084205f80528552805f205415610234575b828452600185528084205f80528552805f20610227348254611dc1565b905551933485523394a480f35b61023d836120bf565b61020a565b5034610174576020366003190112610174578160209360ff923581526005855220541690519015158152f35b5050346102b757816003193601126102b75780516102b39161028f82611c20565b60058252640352e302e360dc1b602083015251918291602083526020830190611cb0565b0390f35b5080fd5b83346101a55760203660031901126101a5576102d5611bac565b6102dd612418565b6001600160a01b03908116906102f4821515611fdf565b8183549182167f8aca81b772b289537bcc2c109e400ab186c91216ba0e41570dd28dfff23dddad8580a36001600160a01b03191617815580f35b5050346102b757816003193601126102b7575f805160206128cd8339815191525490516001600160a01b039091168152602090f35b5034610174576020366003190112610174578160209360ff923581526006855220541690519015158152f35b828486346101a557806003193601126101a5577fa16a46d94261c7517cc8ff89f61c0ce93598e3c849801011dee649a6a557d1005415806104d4575b15610499576103d8612488565b906103e1612570565b92805193602093602086019686881067ffffffffffffffff891117610486575095939061043c83602092878b99965286865261042f82519a8b9a600f60f81b8c5280878d01528b0190611cb0565b91898303908a0152611cb0565b924660608801523060808801528460a088015286840360c088015251928381520193925b82811061046f57505050500390f35b835185528695509381019392810192600101610460565b604190634e487b7160e01b5f525260245ffd5b815162461bcd60e51b815260208185015260156024820152741152540dcc4c8e88155b9a5b9a5d1a585b1a5e9959605a1b6044820152606490fd5b507fa16a46d94261c7517cc8ff89f61c0ce93598e3c849801011dee649a6a557d10154156103cb565b5050346106d05761010091826003193601126106d05781359060803660231901126106d0578060a3193601126106d05767ffffffffffffffff60e4358181116106d05761054d9036908601611bc2565b6001600160a01b039591929061056d87610565612023565b161515611cee565b60c4359761057c891515611d75565b60a4358881168091036106d05730810361070857608435908142116106d4576e22d473030f116ddee9f6b43ac78ba391823b156106d057885163187945bd60e11b8152976024358c8116908190036106d0575f968a968f88968a9688958e870152604435602487015260643560448701526064860152608485015260a48401523360c484015260e4830152806101048301528061012493848401378181018301849052601f01601f191681010301925af180156106c6576106ae575b505050610643612023565b828652600160205281862093811693845f52602052815f20541561069e575b508185526001602052808520835f52602052805f20610682858254611dc1565b9055519283525f805160206128ed83398151915260203394a480f35b6106a89083612156565b5f610662565b90918093975011610486575084525f935f8080610638565b84513d5f823e3d90fd5b5f80fd5b875162461bcd60e51b8152602081880152600e60248201526d14195c9b5a5d08195e1c1a5c995960921b6044820152606490fd5b865162461bcd60e51b8152602081870152602160248201527f5472616e73666572206d75737420626520746f207468697320636f6e747261636044820152601d60fa1b6064820152608490fd5b346106d0575f3660031901126106d05761076d612418565b5f805160206128cd83398151915280546001600160a01b031981169091555f906001600160a01b03167f8be0079c531659141344cd1fd0a4f28419497f9722a3daafe3b4186f6b6457e08280a3005b83346106d0575f3660031901126106d057602090516e22d473030f116ddee9f6b43ac78ba38152f35b5050346106d05760603660031901126106d057610800611bac565b916024359061080d611b96565b610815612214565b61081d612418565b6001600160a01b0381811695610834871515611e22565b61083f851515611d75565b1693846108e7578347106108a457509160209161088c5f808080867ff24ef89f38eadc1bde50701ad6e4d6d11a2dc24f7cf834a486991f3883328504995af1610886611f0a565b50611f39565b51908152a360015f8051602061290d83398151915255005b606490602084519162461bcd60e51b8352820152601860248201527f496e73756666696369656e74204554482062616c616e636500000000000000006044820152fd5b82516370a0823160e01b81523081830152602092919083816024818a5afa908115610a3f579086915f91610a0e575b50106109cb57835163a9059cbb60e01b81526001600160a01b039092169082019081526020810185905282908290819060400103815f895af19182156109c1577ff24ef89f38eadc1bde50701ad6e4d6d11a2dc24f7cf834a486991f388332850494926020949261098f925f92610994575b5050611ec6565b61088c565b6109b39250803d106109ba575b6109ab8183611c3c565b810190611eae565b8880610988565b503d6109a1565b83513d5f823e3d90fd5b835162461bcd60e51b8152908101839052601a60248201527f496e73756666696369656e7420746f6b656e2062616c616e63650000000000006044820152606490fd5b809250858092503d8311610a38575b610a278183611c3c565b810103126106d05785905189610916565b503d610a1d565b85513d5f823e3d90fd5b8284346106d0575f3660031901126106d0577f00000000000000000000000000000000000000000000000000000000000000006001600160a01b03163003610ab457602090517f360894a13ba1a3210667c828492db98dca3e2076cc3735a920a3ca505d382bbc8152f35b5163703e46dd60e11b8152fd5b5050816003193601126106d057610ad6611bac565b60243567ffffffffffffffff81116106d057366023820112156106d057610b069036906024818601359101611c7a565b926001600160a01b037f00000000000000000000000000000000000000000000000000000000000000008116308114908115610c9e575b50610c8e57610b4a612418565b82169181516352d1902d60e01b81526020818681875afa5f9181610c5a575b50610b8557505051634c9c8ce360e01b81529182015260249150fd5b7f360894a13ba1a3210667c828492db98dca3e2076cc3735a920a3ca505d382bbc949392919490818103610c445750843b15610c2e5780546001600160a01b0319168317905551907fbc7cd75a20ee27fd9adebab32041f755214dbc6bffa90cc0225b39da2e5c2d3b5f80a2835115610c175750505f8083602061001d95519101845af4610c11611f0a565b91612869565b9150915034610c2257005b63b398979f60e01b8152fd5b5051634c9c8ce360e01b81529182015260249150fd5b84602491845191632a87526960e21b8352820152fd5b9091506020813d602011610c86575b81610c7660209383611c3c565b810103126106d057519087610b69565b3d9150610c69565b815163703e46dd60e11b81528490fd5b9050817f360894a13ba1a3210667c828492db98dca3e2076cc3735a920a3ca505d382bbc5416141586610b3d565b8284346106d057806003193601126106d057610ce6611bac565b90610cef611b80565b907ff0c57e16840df040f15088dc2f81fe391c3923bec73e23a9662efc9c229c6a009384549260ff84841c16159167ffffffffffffffff95868616958615806111c4575b600180981490816111ba575b1590816111b1575b506111a15767ffffffffffffffff19811687178955610d78919085611182575b50610d706126ec565b61019d6126ec565b610d806126ec565b835195610d8c87611c20565b6012875260209671121d5b585b94185cdcd31a5b9ad5985d5b1d60721b88820152855192610db984611c20565b878452603160f81b89850152610dcd6126ec565b610dd56126ec565b815183811161116f577fa16a46d94261c7517cc8ff89f61c0ce93598e3c849801011dee649a6a557d1029080610e0b8354612450565b948c601f96878111611100575b50508c90868311600114611077575f9261106c575b50505f19600383901b1c1916908a1b1790555b8351928311610486575081907fa16a46d94261c7517cc8ff89f61c0ce93598e3c849801011dee649a6a557d10393610e788554612450565b828111610ffe575b5089918311600114610f81575f92610f76575b50505f19600383901b1c191690861b1790555b5f7fa16a46d94261c7517cc8ff89f61c0ce93598e3c849801011dee649a6a557d100555f7fa16a46d94261c7517cc8ff89f61c0ce93598e3c849801011dee649a6a557d10155610ef46126ec565b610efc6126ec565b5f8051602061290d8339815191528490556001600160a01b0316610f21811515611fdf565b6bffffffffffffffffffffffff60a01b5f5416175f55610f3d57005b7fc7f505b2f371ae2175ee4913f4499e1f2633a7b5936321eed1cdaeb6115181d29368ff000000000000000019815416905551908152a1005b015190508980610e93565b90889350601f19831691855f527f5f9ce34815f8e11431c7bb75a8e6886a91478f7ffc1dbb0a98dc240fddd76b75925f5b8c828210610fe85750508411610fd0575b505050811b019055610ea6565b01515f1960f88460031b161c19169055898080610fc3565b8385015186558c97909501949384019301610fb2565b90919250845f527f5f9ce34815f8e11431c7bb75a8e6886a91478f7ffc1dbb0a98dc240fddd76b758380860160051c8201928c8710611063575b9186958c929594930160051c01915b828110611055575050610e80565b5f81558695508b9101611047565b92508192611038565b015190508d80610e2d565b8c9350908d91601f198416865f527f42ad5d3e1f2e6e70edcf6d991b8a3023d3fca8047a131592f9edb9fd9b89d57d935f905b8282106110df57505084116110c7575b505050811b019055610e40565b01515f1960f88460031b161c191690558d80806110ba565b91929395968291958786015181550195019301908f918f96959493926110aa565b90919250845f52867f42ad5d3e1f2e6e70edcf6d991b8a3023d3fca8047a131592f9edb9fd9b89d57d9181860160051c8301938610611166575b918e91869594930160051c01915b82811061115857508e9150610e18565b5f81558594508e9101611148565b9250819261113a565b604182634e487b7160e01b5f525260245ffd5b68ffffffffffffffffff19166801000000000000000117895589610d67565b855163f92ee8a960e01b81528390fd5b9050158a610d47565b303b159150610d3f565b5084610d33565b83346106d0575f3660031901126106d0575f5490516001600160a01b039091168152602090f35b5050346106d05760a03660031901126106d057803590611210611b80565b91604435926064359260843567ffffffffffffffff81116106d0576112389036908301611bc2565b96611241612214565b61124d87421115611de2565b855f526020916006835260ff9860ff835f2054166115dc576001600160a01b038681169990929061127f8b1515611e22565b8451868101917fac6ae3cc5ece6010ebb8b37174a73e4d6bcee311519accdf8ea45decdd93418c83528a878301528c606083015260808201528a60a082015260a081526112cb81611bf0565b5190206112d790612243565b9136906112e392611c7a565b6112ec9161262f565b6112f591612669565b81805f541691161461130690611e62565b865f5260068352815f20986001998a60ff19825416179055865f5260028452825f20948351968b888099888a54918281520190819a5f52895f20935f5b8b8382106115c4575050505061135b92500389611c3c565b875115611589578b905f825b611486575b5050508651805b6113f05750505090805194818601918652518091526060850193915f905b8a8383106113d8578588018b905289897fc476e7a75c9a530099e8afbe107a6f489891b198a9f99b07bbcbedc30adf41cf8a8a038ba35f8051602061290d83398151915255005b84518216875295850195938501939190910190611391565b5f1981018181116114735761140685918a611fb7565b5116895f528c8752855f20815f528752855f20541580611459575b611449575b508015611436575f190180611373565b601182634e487b7160e01b5f525260245ffd5b611453908a6122c3565b8c611426565b50895f52828752855f20815f52875283865f205416611421565b601183634e487b7160e01b5f525260245ffd5b895181101561158457808661149c85938d611fb7565b51168c5f52828a52885f20815f528a5289895f205491826114c2575b5050500182611367565b5f8f81528783528b812082825283528b8120559293509091806114fe575050906114f65f8080808896885af1610886611f0a565b8f89816114b8565b895163a9059cbb60e01b81526001600160a01b0386168882019081526020810194909452949550929392909183919082905f90829060400103925af190811561157a57916115588f94939285935f9161155d575b50611ec6565b6114f6565b61157491508b3d8d116109ba576109ab8183611c3c565b5f611552565b87513d5f823e3d90fd5b61136c565b845162461bcd60e51b815280830187905260156024820152742737903a37b5b2b739903a37903a3930b739b332b960591b6044820152606490fd5b86548b168552958201958e9550909301928101611343565b50505162461bcd60e51b815291820152601860248201527f5472616e7366657220494420616c726561647920757365640000000000000000604482015260649150fd5b8284346106d05760203660031901126106d057602091355f526006825260ff815f20541690519015158152f35b5050816003193601126106d0575f90355f805160206128ed8339815191526020611674611b80565b61167f341515611f7b565b6001600160a01b031694611694861515611d32565b83855260018252808520858052825280852054156116d3575b8385526001825280852085805282528085206116ca348254611dc1565b905551348152a4005b6116dc846120bf565b6116ad565b919050346106d057816003193601126106d0576116fc611bac565b60243590611708611b96565b91606435936084359060a4359660c4359067ffffffffffffffff918281116106d0576117379036908501611bc2565b929091611742612214565b61174e86421115611de2565b8a5f526020956005875260ff8d5f205416611a0257868d9695938b95938e8c948f8b8e60018060a01b0380809d1692611788841515611e22565b611793831515611d75565b51988901997f93c32e2f7a94e7eab636ada915fee34dea34c0e69781a81a857ba00915ea93a48b5216809e8901526060880152608087015260a086015260c0850152818401528252610100820190828210908211176119ef5761182f95938f61181a9461182397946118149461180c9352519020612243565b923691611c7a565b9061262f565b90939193612669565b805f5416911614611e62565b865f5260018352885f20825f52835283895f2054106119ac57875f5260058352885f20600160ff19825416179055865f5260018352885f20825f528352885f20805490858203918211611473575561188785886122c3565b8161190857505050807f446aa4856eeec174b8c5d9ca7ca4b26533e53f288c1bdfc349c51f954962893b9495966118ca5f8080806118f2978a5af1610886611f0a565b516001600160a01b039384168152939092166020840152604083019190915281906060820190565b0390a360015f8051602061290d83398151915255005b885163a9059cbb60e01b81526001600160a01b0387169181019182526020820185905291839183919082905f90829060400103925af19182156119a2576118f293927f446aa4856eeec174b8c5d9ca7ca4b26533e53f288c1bdfc349c51f954962893b97989992611980925f92611985575050611ec6565b6118ca565b61199b9250803d106109ba576109ab8183611c3c565b8a80610988565b88513d5f823e3d90fd5b885162461bcd60e51b8152908101839052601960248201527f496e73756666696369656e74206c696e6b2062616c616e6365000000000000006044820152606490fd5b604187634e487b7160e01b5f525260245ffd5b8c5162461bcd60e51b8152808701889052601860248201527f576974686472617720494420616c7265616479207573656400000000000000006044820152606490fd5b5050346106d05760803660031901126106d0578035611a62611b80565b90611a6b611b96565b6001600160a01b038381169360643591611a86861515611cee565b831695611a94871515611d32565b611a9f831515611d75565b87516323b872dd60e01b60208083019182526001600160a01b039690961660248301523060448301526064808301869052825285915f9190611ae2608482611c3c565b5190828a5af11561157a575f513d611b775750853b155b611b60575090865f805160206128ed8339815191529392855f5260018452815f20875f528452815f205415611b50575b50845f5260018352805f20865f528352805f20611b47838254611dc1565b905551908152a4005b611b5a9086612156565b87611b29565b8751635274afe760e01b8152908101869052602490fd5b60011415611af9565b602435906001600160a01b03821682036106d057565b604435906001600160a01b03821682036106d057565b600435906001600160a01b03821682036106d057565b9181601f840112156106d05782359167ffffffffffffffff83116106d057602083818601950101116106d057565b60c0810190811067ffffffffffffffff821117611c0c57604052565b634e487b7160e01b5f52604160045260245ffd5b6040810190811067ffffffffffffffff821117611c0c57604052565b90601f8019910116810190811067ffffffffffffffff821117611c0c57604052565b67ffffffffffffffff8111611c0c57601f01601f191660200190565b929192611c8682611c5e565b91611c946040519384611c3c565b8294818452818301116106d0578281602093845f960137010152565b91908251928382525f5b848110611cda575050825f602080949584010152601f8019910116010190565b602081830181015184830182015201611cba565b15611cf557565b60405162461bcd60e51b8152602060048201526015602482015274496e76616c696420746f6b656e206164647265737360581b6044820152606490fd5b15611d3957565b60405162461bcd60e51b8152602060048201526014602482015273496e76616c69642066726f6d206164647265737360601b6044820152606490fd5b15611d7c57565b60405162461bcd60e51b815260206004820152601d60248201527f416d6f756e74206d7573742062652067726561746572207468616e20300000006044820152606490fd5b91908201809211611dce57565b634e487b7160e01b5f52601160045260245ffd5b15611de957565b60405162461bcd60e51b815260206004820152601160248201527014da59db985d1d5c9948195e1c1a5c9959607a1b6044820152606490fd5b15611e2957565b60405162461bcd60e51b8152602060048201526011602482015270125b9d985b1a59081c9958da5c1a595b9d607a1b6044820152606490fd5b15611e6957565b60405162461bcd60e51b815260206004820152601860248201527f496e76616c696420736572766572207369676e617475726500000000000000006044820152606490fd5b908160209103126106d0575180151581036106d05790565b15611ecd57565b60405162461bcd60e51b8152602060048201526015602482015274151bdad95b881d1c985b9cd9995c8819985a5b1959605a1b6044820152606490fd5b3d15611f34573d90611f1b82611c5e565b91611f296040519384611c3c565b82523d5f602084013e565b606090565b15611f4057565b60405162461bcd60e51b8152602060048201526013602482015272115512081d1c985b9cd9995c8819985a5b1959606a1b6044820152606490fd5b15611f8257565b60405162461bcd60e51b815260206004820152600d60248201526c09aeae6e840e6cadcc8408aa89609b1b6044820152606490fd5b8051821015611fcb5760209160051b010190565b634e487b7160e01b5f52603260045260245ffd5b15611fe657565b60405162461bcd60e51b815260206004820152601560248201527424b73b30b634b21039b2b93b32b91039b4b3b732b960591b6044820152606490fd5b6024356001600160a01b03811681036106d05790565b6001600160a01b03908116908115612092575f805160206128cd83398151915280546001600160a01b031981168417909155167f8be0079c531659141344cd1fd0a4f28419497f9722a3daafe3b4186f6b6457e05f80a3565b604051631e4fbdf760e01b81525f6004820152602490fd5b8054821015611fcb575f5260205f2001905f90565b805f52602060048152604091825f205f8052825260ff835f205416156120e457505050565b805f5260028252825f205460038352835f205f80528352835f2055805f5260028252825f208054600160401b811015611c0c57612126916001820181556120aa565b81549060018060a01b039060031b1b191690555f5260048152815f20905f8052525f20600160ff19825416179055565b90815f52602060048152604092835f209260018060a01b03811693845f52835260ff855f2054161561218a575b5050505050565b815f5260028352845f205460038452855f20855f528452855f2055815f5260028352845f2090815491600160401b831015611c0c57826121d29160016121f0950181556120aa565b90919060018060a01b038084549260031b9316831b921b1916179055565b5f5260048152825f20915f52525f20600160ff198254161790555f80808080612183565b5f8051602061290d83398151915260028154146122315760029055565b604051633ee5aeb560e01b8152600490fd5b60429061224e6127ba565b612256612824565b6040519060208201927f8b73c3c69bb8fe3d512ecc4cf759cc79239f7b179b0ffacaa9a75d522b39400f8452604083015260608201524660808201523060a082015260a081526122a581611bf0565b519020906040519161190160f01b8352600283015260228201522090565b5f8181526001602090815260408083206001600160a01b03958616808552908352928190205490939015806123fc575b6122fe575050505050565b805f5260038252835f20835f528252835f205494815f5260028352845f2054955f1996878101908111611dce5780839183036123af575b505050815f5260028352845f20805496871561239b575f97019161235983836120aa565b909182549160031b1b191690555580855260048252838520838652825283852060ff198154169055845260038152828420918452528120555f80808080612183565b634e487b7160e01b5f52603160045260245ffd5b6123c290855f5260028752885f206120aa565b90549060031b1c16835f52600285526123e1816121d2848a5f206120aa565b835f5260038552865f20905f528452855f20555f8181612335565b50805f5260048252835f20835f52825260ff845f2054166122f3565b5f805160206128cd833981519152546001600160a01b0316330361243857565b60405163118cdaa760e01b8152336004820152602490fd5b90600182811c9216801561247e575b602083101461246a57565b634e487b7160e01b5f52602260045260245ffd5b91607f169161245f565b604051905f827fa16a46d94261c7517cc8ff89f61c0ce93598e3c849801011dee649a6a557d102918254926124bc84612450565b8084529360209160019182811690811561254a57506001146124ea575b5050506124e892500383611c3c565b565b5f9081527f42ad5d3e1f2e6e70edcf6d991b8a3023d3fca8047a131592f9edb9fd9b89d57d9590935091905b82841061253257506124e89450505081016020015f80806124d9565b85548885018301529485019487945092810192612516565b92505050602092506124e894915060ff191682840152151560051b8201015f80806124d9565b604051905f827fa16a46d94261c7517cc8ff89f61c0ce93598e3c849801011dee649a6a557d103918254926125a484612450565b8084529360209160019182811690811561254a57506001146125cf575050506124e892500383611c3c565b5f9081527f5f9ce34815f8e11431c7bb75a8e6886a91478f7ffc1dbb0a98dc240fddd76b759590935091905b82841061261757506124e89450505081016020015f80806124d9565b855488850183015294850194879450928101926125fb565b815191906041830361265f576126589250602082015190606060408401519301515f1a9061272d565b9192909190565b50505f9160029190565b60048110156126d8578061267b575050565b600181036126955760405163f645eedf60e01b8152600490fd5b600281036126b65760405163fce698f760e01b815260048101839052602490fd5b6003146126c05750565b602490604051906335e2f38360e21b82526004820152fd5b634e487b7160e01b5f52602160045260245ffd5b60ff7ff0c57e16840df040f15088dc2f81fe391c3923bec73e23a9662efc9c229c6a005460401c161561271b57565b604051631afcd79f60e31b8152600490fd5b91907f7fffffffffffffffffffffffffffffff5d576e7357a4501ddfe92f46681b20a084116127af579160209360809260ff5f9560405194855216868401526040830152606082015282805260015afa156127a4575f516001600160a01b0381161561279a57905f905f90565b505f906001905f90565b6040513d5f823e3d90fd5b5050505f9160039190565b6127c2612488565b80519081156127d2576020012090565b50507fa16a46d94261c7517cc8ff89f61c0ce93598e3c849801011dee649a6a557d1005480156127ff5790565b507fc5d2460186f7233c927e7db2dcc703c0e500b653ca82273b7bfad8045d85a47090565b61282c612570565b805190811561283c576020012090565b50507fa16a46d94261c7517cc8ff89f61c0ce93598e3c849801011dee649a6a557d1015480156127ff5790565b90612890575080511561287e57602081519101fd5b60405163d6bda27560e01b8152600490fd5b815115806128c3575b6128a1575090565b604051639996b31560e01b81526001600160a01b039091166004820152602490fd5b50803b1561289956fe9016d09d72d40fdae2fd8ceac6b6234c7706214fd39c1cd1e609a0528c199300c95ddcaddf83340b68d0d44c01b1703f5d28d0611a3fd87e69d79ba7e2ac21d39b779b17422d0df92223018b32b4d1fa46e071723d6817e2486d003becc55f00a2646970667358221220dfa0d314ee46593d073821160776f33d1b82cafe65e46c6a6c29f4ab2d4cb50f64736f6c63430008160033","linkReferences":{}},"methodIdentifiers":{"PERMIT2()":"6afdd850","UPGRADE_INTERFACE_VERSION()":"ad3cb1cc","depositERC20(bytes32,((address,uint256),uint256,uint256),(address,uint256),bytes)":"72377733","depositERC20For(bytes32,address,address,uint256)":"00d42ce0","depositETH(bytes32)":"d68d9d4e","depositETHFor(bytes32,address)":"10d76103","eip712Domain()":"84b0196e","emergencyWithdraw(address,uint256,address)":"551512de","getLinkBalance(bytes32,address)":"f592e017","initialize(address,address)":"485cc955","isTransferIdUsed(bytes32)":"89f3b3a4","isWithdrawIdUsed(bytes32)":"9b7cbeaa","linkBalances(bytes32,address)":"d7ce61dc","owner()":"8da5cb5b","proxiableUUID()":"52d1902d","renounceOwnership()":"715018a6","serverSigner()":"31af1908","setServerSigner(address)":"98e86281","transferLinkBalances(bytes32,address,uint256,bytes32,bytes)":"2e358dea","transferOwnership(address)":"f2fde38b","upgradeToAndCall(address,bytes)":"4f1ef286","usedTransferIds(bytes32)":"1d464bd9","usedWithdrawIds(bytes32)":"b908376a","withdraw(address,uint256,address,bytes32,uint256,bytes32,bytes)":"0adb43b9"},"id":46}